:020000040000FA
:1000000000202020D5000000D9000000DB00000007
:1000100000000000000000000000000000000000E0
:10002000000000000000000000000000DD000000F3
:100030000000000000000000DF000000E100000000
:10004000E3000000E3000000E3000000E300000024
:10005000E3000000E3000000E3000000E300000014
:1000600000000000E3000000E300000000000000CA
:1000700000000000E3000000E3000000E3000000D7
:10008000E3000000E3000000E3000000E3000000E4
:10009000E3000000E300000000000000000000009A
:1000A000E3000000E300000000000000000000008A
:1000B000E300000000000000E3000000E300000097
:1000C0000348854600F010F8004800478D05000001
:1000D0000020202003480047FEE7FEE7FEE7FEE79A
:1000E000FEE7FEE7C10000001CB509480090094882
:1000F000019005460126009C05E0E36807CC3343E8
:100100000C3C98471034AC42F7D3FFF7DDFF0000FA
:100110002006000030060000811E091F00BFFCD22F
:10012000704784B003900291019203980068009098
:10013000009801998843009000980299019A114013
:1001400008430399086004B0704782B001900091A1
:100150000098019995225201885002B0704782B0F0
:10016000019000910098019995225201885002B0A7
:100170007047000082B00190009100980199024AF6
:10018000885002B07047C046D012000081B0009085
:1001900000990120C2020248885001B07047C04651
:1001A0000100002681B0009000988100074A81205C
:1001B000885001B07047C04681B00090009881001F
:1001C000024A0020885001B07047C0460480424077
:1001D00081B000900099024A0248885001B07047EF
:1001E00004080000030000B182B001900091009863
:1001F0000199024A885002B07047C0469012000030
:1002000082B00190009100980199024A885002B092
:100210007047C046B0120000F0B584B0012422023D
:10022000344B19680392914319606A490D686D0453
:10023000FCD5457E25409E69A64374199C61202407
:10024000045D03252C40DE69AE433419DC611F4C8C
:10025000256805262660466A37681F6276685E62F2
:1002600007262E402660C4697F252D02DE69AE4335
:100270006406640C3419DC61076845688268009282
:10028000C66802690192426902929A69104C144050
:100290003A07120B2D03ADB2AA183243009D2D0769
:1002A0002D0D1543019A1543029A1543007E2843EC
:1002B000084A0240101998611868039A10431860A0
:1002C00008688005FCD504B0F0BDC046001340406E
:1002D0008D00F0FF72FF0F0006490868012290436D
:1002E00008607047034908680122120290430860C1
:1002F0007047C04608010B4081B001466846017056
:1003000000780249086001B07047C04608030B40FE
:1003100080B582B0014601A8018001880F20020249
:100320002B48FFF7FEFE02B080BDC046F0B5124B71
:100330001D46083D2E680124A6432E600326360381
:1003400030401F68B743381818601868FF26B0435C
:10035000C9B240181860286820432860186821072F
:10036000002A06D0084318601A480168C905FCD560
:10037000F0BD88431860F0BD10010B4080B582B01D
:10038000014601A80170017802480322FFF7C9FE67
:1003900002B080BD00010B4080B582B0014601A8CB
:1003A000017001780A483022FFF7BBFE02B080BD21
:1003B00007498860074802689202FCD501221204AE
:1003C0000B6813430B600168C906FCD57047C04633
:1003D00004010B4004020B4080B584B00920FFF7F4
:1003E000EBFE0A20FFF7E8FE31200190FFF7DAFE6E
:1003F0003820FFF7D7FE3920FFF7D4FE019881059A
:10040000039170480290FFF7AAFE02980399FFF744
:10041000B1FE04B080BDC04680B582B0002001901E
:10042000FFF76AFF012000904002FFF771FF01987B
:10043000FFF7A4FFFFF750FFFFF754FF009A0320D8
:1004400000030A21FFF772FF0548FFF7E5FE1020C1
:10045000FFF7A2FF0198FFF7ABFF02B080BDC046D7
:10046000F805000080B5024800F026F880BDC046BF
:100470008038010080B500F007F8FFF7ADFFFFF707
:10048000CBFFFFF7EFFF80BD80B582B00948009039
:10049000FFF79EFE4B480190FFF79AFE0098FFF78A
:1004A00075FE0198FFF772FE1020FFF735FE02B0CF
:1004B00080BDC04600000A4080B584B0029002981A
:1004C000401E000E002803D0FFE70120039011E03A
:1004D0000298401E0949086000200190C043032192
:1004E00000F012F8019806490860064A07211160D9
:1004F0000390FFE7039804B080BDC04614E000E01D
:1005000018E000E010E000E070B582B0024601A8FB
:100510000270009100214056002816D4FFE7002405
:1005200001A908570322D3431840174A8058095796
:100530008C07E50EFF24AC40A043009CA401E4B26C
:10054000AC402043194088501AE001A908780F24D4
:10055000204008380322D34318400A4A8058002517
:1005600049578D07EE0EFF25B540A843009DAD010C
:10057000EDB2B54028432140083919408850FFE7C3
:1005800002B070BD1CED00E000E400E080B582B078
:1005900000200190FFF76EFF0120810609480090BE
:1005A000FFF7D3FD009821218905FFF71DFEFFE726
:1005B0000548FFF7B1FD312081050248FFF720FE15
:1005C000F6E7C04600200A4000B4C4040000000062
:1005D00002E008C8121F08C1002AFAD170470000C3
:1005E0007047000000000000002001E001C1121F60
:1005F000002AFBD17047000001000000000000004D
:1006000000000000000000000000000010000000DA
:100610000001000003000000000000003400C4419D
:10062000300600000000202000200000E805000047
:04000005000000C136
:00000001FF
