:020000040000FA
:10000000882C2020D5000000D9000000DB00000073
:1000100000000000000000000000000000000000E0
:10002000000000000000000000000000150D0000AE
:100030000000000000000000D10C0000010F0000D3
:10004000E3000000E3000000E3000000E300000024
:10005000E3000000E3000000E3000000E300000014
:1000600000000000E3000000E300000000000000CA
:1000700000000000E3000000E30000002D0F00007E
:10008000E3000000E3000000E3000000E3000000E4
:10009000E3000000E300000000000000000000009A
:1000A000E3000000E300000000000000000000008A
:1000B000E300000000000000E3000000E300000097
:1000C0000348854600F04CFA00480047D110000074
:1000D000882C202003480047FEE7FEE7FEE7FEE706
:1000E000FEE7FEE7C100000003460B439B0703D079
:1000F00009E008C9121F08C0042AFAD203E00B78ED
:100100000370401C491C521EF9D27047D2B201E064
:100110000270401C491EFBD270470022F6E710B562
:1001200013460A4604461946FFF7F0FF204610BD65
:1001300070B50446002903D000202022012310E0DE
:10014000002801D00020C043C046C0460DE025462F
:10015000D5408D4205D30D469540641B1D46954004
:1001600040191546521E002DF1DC214670BDF0B538
:100170001FB40646002082B005464024019100903D
:100180001BE0019922460F46304600F011FA049A0E
:10019000059B801A994110D310461946224600F05B
:1001A000F7F9361A8F410197224601200021009F5E
:1001B00000F0EEF938184D4100902046641E0028EA
:1001C000DFDC019B00982946324607B0F0BD0000F5
:1001D000F0B507460846584087B0C00F0490480065
:1001E0000E46590040084908BC1A884105D23846D5
:1001F00031461E4617460B4602465800400810433B
:100200004CD0300D039040055900400D490D05902C
:10021000401A0290402872DA18030121000B0905E8
:100220000843019004980092002805D00199524299
:100230000020884100920190029840210A1A0199F9
:10024000009800F0A5F905460C466B4607CB00F078
:10025000C0F9C0197141039A0E0D0023D7175640FB
:100260001A467A40164344D0049A002A2DD0029AA6
:10027000012A039A15DC1205C01A914101263605A0
:10028000001C7141D20F059ED20700930192029685
:100290002A46234600F0BDF907B0F0BD3846314686
:1002A000FAE71605224A0F46B218C01AB7410121D3
:1002B0000905001C4F4100187F411146181879416B
:1002C000E20F10436D19644113E0E2076D08154316
:1002D0006408C2071443039A01261205C01A91410B
:1002E0003605001C7141CE07400830434908C0184C
:1002F00051412A46234600F07FF9CDE7FFE70498F5
:1003000001224000C117121A00238B410498314684
:10031000C417381AA141EEE730B40124E407634062
:1003200030BC55E730B40124E407614030BC4FE7EE
:100330000000E0FFF0B51FB488B00B9909980024C5
:1003400048400999C00F490049080991C0070B9915
:100350000090490049080B9109990898A64608435E
:100360001CD00B990A98084318D009980124400022
:10037000420D4800410D099824050003000B20435D
:1003800009900B980003000B20430B9050181C4958
:100390004018002201901446104605E00020014656
:1003A0000DB0F0BD032801DA034600E003239C46AC
:1003B000C11A0AAE0AE05F0008ADED5B4F00F75BC3
:1003C0007D430027AA187C41491C5B1E6145F2DD74
:1003D000410004AB5A522104120C0A43240C401C65
:1003E0000828DFDB01980290009970460191009087
:1003F000059B049A0799069800F00BF9D0E70000D6
:100400000DFCFFFFF0B50C465C4085B0E40FE4073F
:1004100003944C000026640859009446490802469B
:100420000296224321D062460A431ED06200570D35
:100430004A000E032303550D012402462C492405CE
:10044000781B1B0B360B4018234326436146009054
:100450001C46501AB44103D30098401C009002E09F
:10046000921800985B41002803DA0020014605B08D
:10047000F0BD0020012109050746864611E06446CB
:100480001D46141BB54106D36546521BB341744645
:1004900007430C43A646CD07400849082843921855
:1004A0005B4105460D43EAD11046184313D0604620
:1004B000194650407140084306D06046101AB341B7
:1004C00006D20122002306E000220123DB0702E01E
:1004D0000122D2435310009874460105381C614133
:1004E000029C039D0019694100F086F8BFE70000F7
:1004F000FD0300004A0009030123090B1B051943F2
:100500000A4B10B5520D9A4202DA0020014610BD86
:10051000064B34339A4203DC9A1A00F049F810BDB6
:10052000034BD21800F034F810BD0000FF030000A8
:10053000CDFBFFFF10B5002904DB0124E407404296
:100540008C412146002B04DB1C460123DB07524271
:10055000A341994200D1904210BD0000000000006C
:100560001CB5094800900948019005460126009CE9
:1005700005E0E36807CC33430C3C98471034AC42A9
:10058000F7D3FFF7A1FD0000B0390000D03900001B
:1005900010B5202A04DB0146203A9140002010BD0E
:1005A000914020239C1A0346E3401943904010BD1C
:1005B00010B5202A04DB0846203AD040002110BDA7
:1005C0000B46D340D0402024A21A9140084319463C
:1005D00010BD10B5202A06DBCB170846203A104183
:1005E000C1170B4306E00B461341D0402024A21A4A
:1005F00091400843194610BD10B5002B08DA0024BD
:10060000401C614192185B411A4301D140084000EF
:1006100010BDF0B51FB482B005460C0003D00846EB
:1006200002F0F6FC02E002F0F3FC203002460090FB
:1006300021462846FFF7ACFF049B059A04460F4667
:1006400018431143084314D0184610431BD0009898
:1006500040210A1A18460599FFF7AAFF05460E46DB
:10066000009A05990498FFF793FF084305D00120ED
:1006700004E02046394607B0F0BD0020C11705430D
:100680000E432C43374300990E986305401A7905B1
:10069000E40A00220C43FD0A0A3002D5002001467C
:1006A000E9E70105101969410C9C0D9D001969418C
:1006B000FFF7A2FFDFE7811E091F00BFFCD27047D2
:1006C00084B0039002910192039800680090009812
:1006D00001998843009000980299019A11400843BB
:1006E0000399086004B0704782B0019000910098AF
:1006F000019995225201885002B0704782B0019052
:10070000009100980199024A885002B07047C04693
:10071000D012000081B0009000990120C202BF48B1
:10072000885001B07047C04610B584B0069C039055
:10073000029101920093029801990843009908439D
:100740000699084303490843039989001F4A8850C2
:1007500004B010BD8100040010B584B0069C039065
:10076000029101920093029801990843009908436D
:10077000069908438121084303998900134A885048
:1007800004B010BD81B00090009881000F4A002095
:10079000885001B07047C04682B001900091009827
:1007A0000349084301998900084A885002B07047FC
:1007B0008000040082B001900091009880210843DD
:1007C00001998900014A885002B070470480424074
:1007D00082B00190009101982721C90140580099E9
:1007E000084002B07047000081B000900099CC4AE8
:1007F000CC48885001B0704782B001900091009BB6
:1008000001999D20420188581843885002B07047D2
:1008100082B00190009100980199024A885002B07C
:100820007047C046B0120000F0B584B00124220227
:10083000344B19680392914319606E490D686D0439
:10084000FCD5457E25409E69A64374199C612024F1
:10085000045D03252C40DE69AE433419DC611F4C76
:10086000256805262660466A37681F6276685E62DC
:1008700007262E402660C4697F252D02DE69AE431F
:100880006406640C3419DC6107684568826800926C
:10089000C66802690192426902929A69104C14403A
:1008A0003A07120B2D03ADB2AA183243009D2D0753
:1008B0002D0D1543019A1543029A1543007E2843D6
:1008C000084A0240101998611868039A104318608A
:1008D00008688005FCD504B0F0BDC0460013404058
:1008E0008D00F0FF72FF0F00064908680122904357
:1008F00008607047034908680122120290430860AB
:100900007047C04608010B403949086801221203AC
:10091000104308607047C04681B0014668460170C8
:1009200000780249086001B07047C04608030B40D8
:1009300080B582B0014601A8018001880F20020223
:100940002B48FFF7BDFE02B080BDC046F0B5124B8C
:100950001D46083D2E680124A6432E60032636035B
:1009600030401F68B743381818601868FF26B04336
:10097000C9B2401818602868204328601868210709
:10098000002A06D0084318601A480168C905FCD53A
:10099000F0BD88431860F0BD10010B4080B582B0F7
:1009A000014601A80170017802480322FFF788FE82
:1009B00002B080BD00010B4080B582B0014601A8A5
:1009C000017001780A483022FFF77AFE02B080BD3C
:1009D00007498860074802689202FCD50122120488
:1009E0000B6813430B600168C906FCD57047C0460D
:1009F00004010B4004020B4081B000900099804A32
:100A00000120885001B0704781B00090009901200A
:100A1000C2025E48885001B07047C04601000026FF
:100A2000B0B54A68364BC250364A80180A78222A36
:100A300058D8930001A4E3589F46C046DB0A000043
:100A4000E50A0000DB0A0000E50A0000E50A0000F4
:100A5000E50A0000E50A0000E50A0000E50A0000DA
:100A6000E50A0000E50A0000E50A0000E50A0000CA
:100A7000E50A0000E50A0000E50A0000C90A0000D6
:100A8000E50A0000C90A0000E50A0000E50A0000C6
:100A9000E50A0000E50A0000E50A0000E50A00009A
:100AA000E50A0000E50A0000E50A0000E50A00008A
:100AB000E50A0000E50A0000E50A0000C90A000096
:100AC000E50A0000C90A000003231B0704689C43D1
:100AD00001235B07E318036004E003231B0704689A
:100AE0009C4304600B69C360CB68074C1C40C36A1D
:100AF000064D1D402B19C362097A11430160B0BD38
:100B00000818000004180000777702008888FDFFAD
:100B100081B000900099444A4448885001B0704721
:100B200004080000030000B110B50122120383186D
:100B30000C789C604B7883508978014A815010BDB5
:100B40000C11000081B00090009911200202885819
:100B500001231843885001B07047000082B0019013
:100B60000091009B0199034A88581843885002B0AD
:100B70007047C0462810000081B000900099012005
:100B8000C2020248885001B07047C04601000026EA
:100B900081B000900098812149014058C0B201B055
:100BA00070470000B0B51122120283580124A343FC
:100BB00083500B888C781C438B882343094C1C4042
:100BC0008358094D1D40631983508B79CC791C43A0
:100BD000097A21437E231940801842689A435118AC
:100BE0004160B0BD18670000E798FDFF81B000903C
:100BF0000098034940580121084001B07047C046A1
:100C00000811000081B00090009802494058C0B21D
:100C100001B070472411000081B000900099024A91
:100C20000248885001B0704704080000030000B17A
:100C300080B584B003900291019203980B4940184B
:100C400002990B4AFFF73CFD03980A4940180199A5
:100C50003F22FFF735FD0399074A8818895801227A
:100C60001140FFF72DFD04B080BDC04610110000FB
:100C7000FFFF0000141100000411000010B5012254
:100C8000120383180C789C604978815010BD80B5A0
:100C900082B0019000910198112109024018009939
:100CA0000322D203FFF70CFD02B080BD82B0019099
:100CB000684601700078019989225201885002B07B
:100CC000704700000000000000000000000000006D
:100CD000EFF309800E4B1A6820381060F0C04446CC
:100CE0004D4656465F46F0C008B572B601F0C6FAEA
:100CF00062B60CBC116808681030F0C8A046A9465E
:100D0000B246BB4680F309882038F0C81847C04671
:100D10000C2420207047000080B586B00920FFF722
:100D200031FD0A20FFF72EFD142002210191FFF76B
:100D300041FD01991520FFF72FFD0021029100913F
:100D4000012004904204C3043020FFF7EDFC029B15
:100D500004980093020431201946FFF7FDFC049823
:100D600081050391BC480590FFF7BEFC03990598E7
:100D7000FFF7C4FC049905988902FFF73DFD06B012
:100D800080BDC04680B582B000200190FFF7C4FD51
:100D9000012000904002FFF7CBFD0198FFF7FEFD18
:100DA000FFF7A2FDFFF7A6FD009A032000030A212A
:100DB000FFF7CCFD0648FFF737FD1020FFF7FCFDDD
:100DC000FFF7A2FD0198FFF703FE02B080BDC04609
:100DD0001439000080B582B0064948480190FFF7F9
:100DE000A3FE01980449FFF71BFE0198FFF704FEDC
:100DF00002B080BD3C3900004039000080B582B0AF
:100E000006493D480190FFF78FFE01980449FFF71E
:100E100007FE0198FFF7F0FD02B080BD54390000D5
:100E20005839000080B582B00F49A8480190FFF7FB
:100E300025FF01980D49FFF7B5FE01980021FFF746
:100E400026FF019815212D22FFF7F2FE01980121BE
:100E50008902FFF783FE0F20032100F0A7F8019815
:100E6000FFF770FE02B080BD6C3900006E390000E3
:100E700080B500F015F8FFF74FFFFFF783FFFFF78E
:100E8000BDFFFFF7A7FFFFF7CDFF0349B822002002
:100E900088540249885480BD4C01202090002020B5
:100EA00080B586B013480190FFF79EFC6A48029017
:100EB000FFF79AFC10480390FFF72AFE0F480490B2
:100EC000FFF726FE81480590FFF7A6FE0198FFF781
:100ED00021FC0298FFF71EFC0398FFF795FD04988C
:100EE000FFF792FD0598FFF747FE1020FFF7E3FBA1
:100EF00006B080BD00000A40000086400020864009
:100F000080B582B000F024FF019001F00BFE0028B4
:100F100005D0FFE70120000703490860FFE70198BB
:100F200000F06BFF02B080BD04ED00E010B5674833
:100F3000FFF72EFE0B280CD1FFE76448FFF762FE97
:100F4000574980240A59531C0B51885400F094F8D7
:100F5000FFE710BD81B00146684601700021405690
:100F6000002809D4FFE7684601781F2001400120CE
:100F7000884002490860FFE701B0704780E200E066
:100F800081B001466846017000214056002809D40E
:100F9000FFE7684601781F20014001208840024990
:100FA0000860FFE701B0704700E100E070B582B073
:100FB000024601A80270009100214056002816D474
:100FC000FFE7002401A908570322D3431840174A1A
:100FD000805809578C07E50EFF24AC40A043009CC5
:100FE000A401E4B2AC402043194088501AE001A9A2
:100FF00008780F24204008380322D34318400A4AB7
:101000008058002549578D07EE0EFF25B540A843AF
:10101000009DAD01EDB2B54028432140083919408B
:101020008850FFE702B070BD1CED00E000E400E076
:1010300080B582B001208105019107480090FFF73B
:10104000E7FB00980199FFF7C3FB411E8841034964
:10105000087002B080BDC04600200A400800202071
:1010600080B582B00F200190FFF774FF0198FFF761
:1010700087FF02B080BD000081B009488021405840
:101080007F2806DBFFE70649802200208850009079
:1010900002E001200090FFE7009801B07047C046D1
:1010A0000C00202080B582B001900091FFE7074836
:1010B000FFF79CFD002801D0FFE7F8E701A80178C1
:1010C0000248FFF7F3FD019802B080BD0080104098
:1010D00080B586B0FFF7CCFEFFF7C2FF0F48029045
:1010E0000F4801900122049200920E480E4992028C
:1010F00003920023059301F0A9FC039A059B049831
:101100000A4902910A49019100900A480A4901F0EE
:101110009DFC01F04FF8059806B080BD0812202014
:1011200008022020011E00008A39000068222020C9
:10113000681220204D2000009339000080B584B053
:101140000390029123480068009059480068001DF0
:1011500000F002FE002801D1FFE700E0FFE703985E
:10116000401C00280BD1FFE70298002807D0FFE7BA
:101170004F480068011D1B4800F0A0FE28E00098C1
:1011800003994018019001984949096848600198FD
:101190000099884208D2FFE711480068444909686D
:1011A000091D00F055FE12E00B480068404909682F
:1011B000091D00F04DFE019808490968884204D2D3
:1011C000FFE701980549086000E0FFE7FFE7FFE758
:1011D00004B080BD742A2020142420201C2A202042
:1011E0001C2420204C2A202080B582B0019000F0E1
:1011F00083FE60490868401C08602D48006800288C
:101200000DD1FFE701982A4908605A480068012873
:1012100003D1FFE700F036FA00E0FFE714E02548CD
:10122000006800280ED1FFE721480068C06A0199D4
:10123000C96A884204D8FFE701981D49086000E0A8
:10124000FFE700E0FFE7FFE71B480168491C01607A
:101250000068019908640198C06A184909688842C1
:1012600005D9FFE70198C06A14490860FFE70199B2
:10127000C86A1422424312488018091D00F01EFE5D
:1012800000F044FE0B48006800280DD0FFE7084836
:101290000068C06A0199C96A884203D2FFE700F07A
:1012A000C9FE00E0FFE700E0FFE702B080BDC046F6
:1012B0000C242020402A2020F8242020FC24202058
:1012C0002424202080B584B000F016FE1148006868
:1012D000002819D1FFE71048029000F09CFD0F484C
:1012E000039000F098FD029903988A4A11600C4916
:1012F0000860002000900B4A0B4B14200C2101F0D9
:1013000053F80449086000E0FFE700F0FFFD04B077
:1013100080BDC046782A2020C0292020D429202042
:1013200020242020C8222020B823202080B582B08D
:10133000FFE70F480068002818D0FFE700F0DCFD49
:10134000EA48C068C06801900198001D00F004FDE3
:1013500008490868401E086005490868401E086082
:1013600000F0D4FD019800F093F8E2E702B080BDF0
:10137000F0242020EC24202080B582B00190009140
:101380000198006C002817D0FFE701990A6CC86823
:101390008018C8600199C8688968884204D3FFE74B
:1013A00001990868C86000E0FFE70098019AD168D9
:1013B000126CFEF799FEFFE702B080BD80B586B0E3
:1013C000059004910392002002900598806B019093
:1013D0000598006C002810D1FFE7059800680028E8
:1013E00009D1FFE70598806801F03CFC029005995F
:1013F0000020886000E0FFE743E00398002817D151
:10140000FFE7059A50680499126CFEF76DFE059986
:101410000A6C48688018486005994868896888425D
:1014200004D3FFE705990868486000E0FFE727E07C
:10143000059AD0680499126CFEF756FE05990A6C5D
:10144000C868801AC8600599C8680968884206D2C9
:10145000FFE7059988680A6C801AC86000E0FFE71A
:10146000039802280AD1FFE70198002804D0FFE77B
:101470000198401E019000E0FFE700E0FFE7FFE772
:10148000FFE70198401C05998863029806B080BD6B
:1014900080B582B0019001985D21405C002808D1A0
:1014A000FFE70198006B00F047FD019800F044FD54
:1014B00014E001985D21405C012804D1FFE7019808
:1014C00000F03AFD09E001985D21405C022803D05C
:1014D000FFE772B6FFE7FEE7FFE7FFE702B080BD78
:1014E00082B00190D44800680068414248410199A7
:1014F000086001980068002806D1FFE7CE48006820
:10150000C0680068009002E000200090FFE70098AB
:1015100002B070471024202080B582B00190FFE710
:10152000FFF704FFFCE710B584B0069C039002911E
:101530000192684603700298002803D1FFE70698DD
:10154000006003E0019806990860FFE70398069998
:10155000C8630298069908640698012100F084FF88
:10156000009806994C22885404B010BD10B588B07C
:101570000D9C0C9C0B9C0A9C079006910592049371
:101580000C98006B05998900A522FEF7BFFD0C9809
:10159000016B059880004018001F039003980721F5
:1015A0008843039003A800784007002803D0FFE792
:1015B00072B6FFE7FEE70698002820D0FFE700207C
:1015C0000290FFE702980B2814D8FFE70698029ACA
:1015D000805C0C9989183422885406980299405CE2
:1015E000002801D1FFE705E0FFE7FFE70298401C74
:1015F0000290E7E70C993F220020885404E00C9900
:10160000342200208854FFE70A980A2803D3FFE712
:1016100009200A9000E0FFE70A980C99C8620A982E
:101620000C9988640C9900200190C8640C98001DE6
:1016300000F007FC0C98183000F003FC01980C999E
:1016400009610A9A0A21891A0C9A91610C994962D6
:101650000C99486508650C9988650C995C2288543A
:1016600003980799049A00F04DFB0C9908600B98B9
:10167000002804D0FFE70C980B99086000E0FFE712
:1016800008B010BD80B584B000200390FFE7039838
:1016900009280CD8FFE70398142141431748401844
:1016A00000F0B9FBFFE70398401C0390EFE70C48FC
:1016B000019000F0B0FB0B48029000F0ACFB0A4830
:1016C00000F0A9FB094800F0A6FB094800F0A3FBC5
:1016D00001990298074A11600749086004B080BD6B
:1016E000EC292020002A20202C2A2020602A2020DB
:1016F0004C2A2020142420201C24202024242020B4
:1017000083B002902B480190FFE70198006802998E
:10171000884205D2FFE7FFE7019800680190F4E7EF
:1017200001980090009801994968401802998842F0
:1017300009D1FFE70298426801994868801848601B
:101740000198029000E0FFE702980090009802994B
:10175000496840180199096888421AD1FFE7019841
:1017600000681549096888420DD0FFE701980068B4
:1017700042680299486880184860019800680068CB
:101780000299086004E00C48006802990860FFE7CD
:1017900004E00198006802990860FFE70198029947
:1017A000884204D0FFE702980199086000E0FFE753
:1017B00003B07047442A20201824202080B586B02A
:1017C00005900491039202930020019004980599DA
:1017D00048600598006104980399884213D8FFE790
:1017E00003980299401A05998969884203D3FFE753
:1017F0000120019006E0BA4800680599091D00F033
:1018000027FBFFE714E003980299884208D2FFE71C
:1018100004980299884203D3FFE70120019006E073
:10182000F64800680599091D00F012FBFFE7FFE785
:10183000019806B080BDC0461024202080B582B03B
:10184000019000F059FB0198806B002803D1FFE75D
:101850000120009002E000200090FFE700F056FB1E
:10186000009802B080BD80B582B0019000F044FBCA
:101870000198806B0199C96B884203D1FFE7012071
:10188000009002E000200090FFE700F03FFB00988E
:1018900002B080BD80B586B005900491D74800683D
:1018A000C068C06802900298001D00F055FA0298C6
:1018B0002821405C400700281CD5FFE70298059BC3
:1018C00081695918049AFFF779FF002810D0FFE7C3
:1018D0000298059A00230093194601F041FB0390FA
:1018E0000398002803D1FFE772B6FFE7FEE700E0A8
:1018F000FFE706E002992822885CFE2318408854FE
:10190000FFE70298016A884706B080BD80B58AB0BB
:10191000FFE77448006807A9002200F06EFF002866
:1019200000D199E00798002800D594E00998069026
:1019300006984069002805D0FFE70698001D00F0D2
:101940000BFA00E0FFE705A800F0E6F8039007981F
:101950000290092800D97CE00298810001A040583B
:101960008746C0468D1900008D1900008D190000B2
:10197000ED190000FB1900002D1A00008D19000060
:101980008D190000ED190000FB19000006992822AE
:10199000885C0123184388540698089B816959186C
:1019A000039AFFF70BFF00281ED0FFE70698016A95
:1019B000884706982821405C4007002812D5FFE799
:1019C0000698089982698A1800230093194601F045
:1019D000C7FA04900498002803D1FFE772B6FFE726
:1019E000FEE700E0FFE700E0FFE733E0069928228A
:1019F000885CFE23184088542CE006992822885CD5
:101A000001231843885408980699886106988069CC
:101A1000002803D1FFE772B6FFE7FEE70698039BB5
:101A2000816959181A46FFF7C9FE13E00698282164
:101A3000405C8007002804D4FFE7069800F07CFA99
:101A400006E006992822885CFE2318408854FFE7A8
:101A500000E0FFE7FFE75CE70AB080BD80B584B037
:101A60000390029100F004FC684600F055F80190E4
:101A7000009800282ED1FFE7029800280CD1FFE73C
:101A800003980199884207D8FFE701F093F903987A
:101A90000199FFF7FFFE1CE00298002807D0FFE73E
:101AA000574800680068414248410290FFE70D48EE
:101AB00000680399019A891A029A00F0D5FA01F098
:101AC00079F9002803D1FFE700F0B4FA00E0FFE75E
:101AD000FFE702E001F06EF9FFE704B080BDC04609
:101AE00020242020782A2020094800680068002847
:101AF00005D1FFE707490020C043086006E004481D
:101B00000068C068006803490860FFE77047C04686
:101B1000142420201C2A202080B582B0019000F0DF
:101B2000F9FF009000980A490968884206D2FFE749
:101B300000F010F801990120086003E001990020ED
:101B40000860FFE7009802490860009802B080BD75
:101B50000824202080B586B0FFE728480068006888
:101B6000002840D0FFE725480168C9680968059149
:101B70000068C068C06802900298001D00F0ECF890
:101B80000298016A884702982821405C4007002893
:101B900027D5FFE7059802998969401804900498B1
:101BA000059988420CD9FFE7049802994860029889
:101BB0000061124800680299091D00F049F90FE020
:101BC0000298059A00230093194601F0C9F9019083
:101BD0000198002803D1FFE772B6FFE7FEE7FFE7B1
:101BE00000E0FFE7B9E7054A106803900449086878
:101BF00010600398086006B080BDC0461024202005
:101C00002024202081B000200090CA480068401C99
:101C1000002803D0FFE772B6FFE7FEE772B6FFE7E2
:101C20000098002801D1FFE7FAE701B07047C046ED
:101C300080B584B00390FFE701A8FFF751FC029044
:101C400002980199FFF70AFFFFF760FEF4E780B5FD
:101C500084B0039000F050F903984521405C02A93C
:101C60000870FFE7002102A84056012817DBFFE7B4
:101C70000398406A00280CD0FFE70398243001F055
:101C80004DF8002803D0FFE700F058FA00E0FFE726
:101C900000E004E00298401E02A90870E2E7039900
:101CA0004522FF20885400F031F900F025F903980F
:101CB0004421405C01A90870FFE7002101A84056BB
:101CC000012817DBFFE703980069002810D0FFE721
:101CD0000398103001F022F8002803D0FFE700F04D
:101CE0002DFA00E0FFE70198401E01A9087000E00E
:101CF00000E0E2E703994422FF20885400F006F94F
:101D000004B080BD83B00290019100920298001F40
:101D1000029002990120000608600298001F0290BC
:101D20000198029908600298001F029002990748E2
:101D3000086002981438029000980299086002988E
:101D400020380290029803B07047C046051C00007E
:101D5000EFF3108072B6704782B00190019800696D
:101D60000090019988684968886001994868896885
:101D70004860009840680199884205D1FFE70198C2
:101D800080680099486000E0FFE701990020086141
:101D900000990868401E08600098006802B070470B
:101DA00083B0029001910092029905480860019960
:101DB0000448086000998020086003B07047C0465E
:101DC000002720200025202083B00290019100925E
:101DD000029905480860019904480860009980202C
:101DE000086003B07047C04660292020602720208B
:101DF00082B001900091FFE7FEE780F31088704702
:101E000080B582B00190FFE7FFF712F97D208000D6
:101E100000F060F9F8E781B00090009908460830BA
:101E20004860009A0020C1439160009A1146083131
:101E3000D160009A1146083111610099086001B023
:101E4000704781B0009000990020086101B0704790
:101E500084B0039002910298006800900098401CA2
:101E6000002804D1FFE703980069019010E003986F
:101E700008300190FFE701984068006800998842A7
:101E800005D8FFE7FFE7019840680190F3E7FFE717
:101E900001984068029948600298416888600198FA
:101EA0000299886002980199486003980299086134
:101EB00003990868401C086004B0704783B0029022
:101EC000019102984068009000980199486000983C
:101ED0008068019988600198009989684860019834
:101EE0000099886002980199086102990868401C6D
:101EF000086003B07047000072B60E490868401CC5
:101F00000860BFF34F8FBFF36F8F704709480068B9
:101F1000002803D1FFE772B6FFE7FEE70548016836
:101F2000491E01600068002802D1FFE762B6FFE7A2
:101F30007047C0460400202080B584B00390039809
:101F40000290039800283FD0FFE7029808380290DB
:101F500002980190019840681C490968084203D121
:101F6000FFE772B6FFE7FEE701980068002803D09C
:101F7000FFE772B6FFE7FEE701984068134909687A
:101F800008421FD0FFE701980068002818D1FFE73A
:101F90000E480268019948689043486000F068F96B
:101FA000019842680A490868801808600198FFF79C
:101FB000A7FB08490868401C086000F0FBFE00E031
:101FC000FFE700E0FFE7FFE704B080BDE82920203D
:101FD000142A2020242A2020054900200860054AD0
:101FE0001060054A05481060072008607047C04629
:101FF00010E000E018E000E014E000E07F380100AD
:102000000B4A13681868203080F30988022080F397
:102010001488BFF36F8F3FBCAE4608BC04BC62B6E9
:102020001847C046C046C046C046C046C046C04627
:102030000C2420200120000703490860BFF34F8FC4
:10204000BFF36F8F7047C04604ED00E080B582B0EB
:102050000190FFE7034800F0CBFF7D20800000F0F7
:1020600039F8F7E77839000080B584B00390029121
:10207000019203980090FFF73FFF009844214056DB
:10208000401C002805D1FFE7009944220020885415
:10209000FFE7009845214056401C002805D1FFE786
:1020A0000099452200208854FFE7FFF72FFF009892
:1020B000806B002807D1FFE7009824300299019A2D
:1020C00000F058F800E0FFE70098FFF7C0FD04B00B
:1020D00080BD000080B582B0019000200090019882
:1020E000002812D0FFE79A480068002803D0FFE7D5
:1020F00072B6FFE7FEE700F0BBF801980021FFF79A
:102100001DF800F057FE009000E0FFE7009800285F
:1021100003D1FFE7FFF78EFF00E0FFE702B080BDCD
:1021200081B0009004480068009908604E4800683B
:102130000099486001B07047202A2020854901207D
:102140000860704780B582B0019000910198002826
:1021500003D1FFE772B6FFE7FEE701987E49096801
:102160001831FFF775FE00980121FEF7E7FF02B076
:1021700080BDC04680B584B003900291019203985F
:10218000002803D1FFE772B6FFE7FEE70398724924
:1021900009681831FFF792FE0198002804D0FFE784
:1021A0000020C0430290FFE702980199FEF7C6FFA6
:1021B00004B080BD80B588B00020039006900590E3
:1021C00006A805A904AAFFF7EBFD039B049A05984E
:1021D00006990291019000931E481F4900F036FCB9
:1021E00001461E4801600068002803D0FFE7012077
:1021F000079002E000200790FFE70798012804D12C
:10220000FFE700F071FE079000E0FFE70798012864
:1022100012D1FFE772B6124A0020C1431160114A81
:10222000012111601049086000F09EF8002801D0DB
:10223000FFE700E0FFE708E00798401C002803D113
:10224000FFE772B6FFE7FEE7FFE70848006808B05F
:1022500080BDC046191500009D390000182A2020B5
:102260001C2A2020402A2020742A2020AC3900007B
:1022700037490868401C08607047C04680B584B084
:1022800033480068002804D0FFE732490120086085
:102290005BE03049002008602F480068006B039025
:1022A0002E49029103980068884212D1FFE70398F3
:1022B00040682A4988420CD1FFE703988068274983
:1022C000884206D1FFE70398C0682449884207D0B6
:1022D000FFE72149086809683431FFF789FDFFE706
:1022E0001F4800680190FFE70198142141431D48F1
:1022F000405800280BD1FFE70198002803D1FFE7E1
:1023000072B6FFE7FEE70198401E0190ECE70198E6
:1023100014214143134840180090009948684068D0
:102320004860009948680831884205D1FFE7009964
:10233000486840684860FFE700984068C068064900
:102340000860019806490860FFE704B080BDC046F8
:10235000F4242020802A20200C242020A5A5A5A537
:10236000FC2420202424202080B582B00C49086859
:10237000FF2213041843086008681206104308601F
:10238000FFF72AFE0749002001900860FFF738FE9A
:10239000FFF774FFFFF736FC019802B080BDC0461E
:1023A00020ED00E00400202010B58AB004460C980F
:1023B000099408910792069305A9087009980028C6
:1023C00003D1FFE772B6FFE7FEE70698002803D1C6
:1023D000FFE772B6FFE7FEE70799002000290290A9
:1023E00005D0FFE70898414248410290FFE7029874
:1023F000C007002803D0FFE772B6FFE7FEE70799A2
:1024000000200029019005D1FFE70898411E88416E
:102410000190FFE70198C007002803D0FFE772B6DC
:10242000FFE7FEE7502003900398502803D0FFE712
:1024300072B6FFE7FEE70398069804900498002818
:102440000ED0FFE704994622012088540998089984
:10245000079A05AB1B78049C0094FFF764F800E032
:10246000FFE704980AB010BD80B584B003900291D4
:10247000039801900198002803D1FFE772B6FFE7A7
:10248000FEE7FFF739FD01990868CB6B0A6C5A43E8
:102490008018886001990020886301990868486065
:1024A00001990868CA6B531E0A6C5A438018C860A9
:1024B00001994422FF2088540199452288540298AA
:1024C000002813D1FFE70198006900280CD0FFE72E
:1024D0000198103000F022FC002803D0FFE7FFF73E
:1024E000A9FD00E0FFE700E0FFE708E001981030F9
:1024F000FFF791FC01982430FFF78DFCFFE7FFF711
:1025000005FD012004B080BD80B58EB00C900B910C
:102510000A920993002008900C98049004980028CF
:1025200003D1FFE772B6FFE7FEE70B990020002911
:10253000039006D1FFE70498006C411E8841039088
:10254000FFE70398C007002803D0FFE772B6FFE754
:10255000FEE7099900200229029007D1FFE70498BD
:10256000C06B401E411E88410290FFE70298C007E1
:10257000002803D0FFE772B6FFE7FEE700F0B0FAED
:10258000014600200029019005D1FFE70A98411E6D
:1025900088410190FFE70198C007002803D0FFE7BA
:1025A00072B6FFE7FEE7FFE7FFF7A6FC0498806B33
:1025B0000499C96B884204D3FFE70998022825D102
:1025C000FFE704980B99099AFEF7F8FE0790049824
:1025D000406A00280CD0FFE70498243000F09EFBEE
:1025E000002803D0FFE7FFF725FD00E0FFE708E044
:1025F0000798002803D0FFE7FFF71CFD00E0FFE786
:10260000FFE7FFF783FC01200D9063E00A980028A4
:1026100005D1FFE7FFF77AFC00200D905AE00898FB
:10262000002806D1FFE705A8FFF77AFD01200890F2
:1026300000E0FFE7FFE7FFE7FFF768FCFFF718FEA2
:10264000FFF75AFC049844214056401C002805D14D
:10265000FFE70499442200208854FFE704984521AD
:102660004056401C002805D1FFE704994522002070
:102670008854FFE7FFF74AFC05A80AA900F090F983
:1026800000281ED1FFE70498FFF7EDF8002811D0CD
:10269000FFE7049810300A99FFF754FD0498FFF7FC
:1026A000D6FA00F087FB002803D1FFE7FFF7C2FC52
:1026B000FFE705E00498FFF7CAFA00F07BFBFFE7AD
:1026C00007E00498FFF7C3FA00F074FB00200D90B8
:1026D00000E069E70D980EB080BD80B58CB00B901E
:1026E0000A91099208930B9805900598002803D148
:1026F000FFE772B6FFE7FEE70A9900200029029083
:1027000006D1FFE70598006C411E88410290FFE763
:102710000298C007002803D0FFE772B6FFE7FEE784
:10272000089900200229019007D1FFE70598C06BA6
:10273000401E411E88410190FFE70198C007002814
:1027400003D0FFE772B6FFE7FEE7FFF701FB069055
:102750000598806B0599C96B884204D3FFE70898F8
:10276000022841D1FFE705984521405C04A900916A
:1027700008700598806B039005980A99089AFEF7EF
:102780001DFE009800214056401C00281AD1FFE78A
:102790000598406A002813D0FFE70598243000F020
:1027A000BDFA00280AD0FFE70998002804D0FFE707
:1027B00009990120086000E0FFE700E0FFE700E082
:1027C000FFE70EE0002104A840567F2803D1FFE771
:1027D00072B6FFE7FEE70498401C0599452288542D
:1027E000FFE70120079002E000200790FFE706982E
:1027F000FFF703FB07980CB080BD80B58CB00A9042
:1028000009910892002007900A98049004980028E3
:1028100003D1FFE772B6FFE7FEE709990020002920
:10282000029006D1FFE70498006C411E8841029097
:10283000FFE70298C007002803D0FFE772B6FFE762
:10284000FEE700F04DF9014600200029019005D176
:10285000FFE70898411E88410190FFE70198C007F3
:10286000002803D0FFE772B6FFE7FEE7FFE7FFF7B8
:1028700043FB0498806B0390039800281FD0FFE768
:1028800004980999FEF778FD0398401E049988631F
:102890000498006900280CD0FFE70498103000F07D
:1028A0003DFA002803D0FFE7FFF7C4FB00E0FFE795
:1028B00000E0FFE7FFF72AFB01200B906CE008988F
:1028C000002805D1FFE7FFF721FB00200B9063E014
:1028D0000798002806D1FFE705A8FFF721FC012093
:1028E000079000E0FFE7FFE7FFE7FFF70FFBFFF7C9
:1028F000BFFCFFF701FB049844214056401C002810
:1029000005D1FFE70499442200208854FFE704988A
:1029100045214056401C002805D1FFE70499452277
:1029200000208854FFE7FFF7F1FA05A808A900F096
:1029300037F800281FD1FFE70498FEF77FFF002833
:1029400012D0FFE7049824300899FFF7FBFB0498A6
:10295000FFF77DF900F02EFA002803D1FFE7FFF71B
:1029600069FB00E0FFE705E00498FFF770F900F06D
:1029700021FAFFE70FE00498FFF769F900F01AFA6F
:102980000498FEF75BFF002803D0FFE700200B90C0
:1029900002E0FFE7FFE76AE70B980CB080BD00009C
:1029A00080B586B0059004910598002803D1FFE713
:1029B00072B6FFE7FEE70498002803D1FFE772B67E
:1029C000FFE7FEE7FFF798FAA14800680290029837
:1029D00005994968401A019004980068401C002835
:1029E00003D1FFE7002003902BE09C480068059985
:1029F000096888420CD0FFE7029805994968884227
:102A000006D3FFE70120039004990020086017E037
:102A100001980499096888420BD2FFE7019A04994A
:102A20000868801A08600598FFF77AFB0020039079
:102A300005E004990020086001200390FFE7FFE70C
:102A4000FFE7FFF763FA039806B080BD70B58CB05E
:102A5000129C119C109C0B900A910992089311985A
:102A6000002803D1FFE772B6FFE7FEE712980028BF
:102A700003D1FFE772B6FFE7FEE7602005900598F7
:102A8000602803D0FFE772B6FFE7FEE705981298CB
:102A900000281FD0FFE7119800281BD0FFE71298ED
:102AA000079011980799086307995D2202208854BE
:102AB0000B980A99099A089B109C079D002603967B
:102AC000029506AD01950094FEF750FD0798FEF7BC
:102AD0008BFB02E000200690FFE706980CB070BD6B
:102AE00081B00B480068002803D1FFE70120009067
:102AF0000BE0AF480068002803D1FFE702200090F8
:102B000002E000200090FFE7FFE7009801B0704767
:102B1000402A202081B04E4800680090009801B003
:102B20007047C04680B586B000200390E648006834
:102B3000002800D083E046490868401C02900298B3
:102B400008600298002818D1FFE742480068006832
:102B5000002803D0FFE772B6FFE7FEE73D4A1068A2
:102B600001903D4908681060019808603B49086879
:102B7000401C0860FEF7B8FF00E0FFE70298384904
:102B80000968884251D3FFE7FFE7324800680068D0
:102B9000002805D1FFE732490020C043086043E028
:102BA0002C480068C068C06805900598406804908B
:102BB00002980499884204D2FFE7049828490860E3
:102BC00032E0FFE70598001DFFF7C6F80598806A18
:102BD000002805D0FFE705981830FFF7BDF800E0A2
:102BE000FFE70598C06ABD490968884205D9FFE733
:102BF0000598C06AB9490860FFE70599C86A1422B8
:102C00004243B7488018091DFFF758F90598C06A74
:102C1000B4490968C96A884203D3FFE701200390D9
:102C200000E0FFE7FFE7B0E7FFE7AB4800680028F8
:102C300003D0FFE70120039000E0FFE704E0A5498F
:102C40000868401C0860FFE7039806B080BDC046D6
:102C5000742A2020142420201C242020202A202014
:102C60001C2A202080B584B0039003980290002095
:102C70000190039800284DD0FFE702989949096810
:102C8000884203D0FFE772B6FFE7FEE70298C06C08
:102C9000002803D1FFE772B6FFE7FEE70299C86C90
:102CA000401EC8640299C86A896C884230D0FFE728
:102CB0000298C06C002829D1FFE70298001DFFF799
:102CC0004BF8002801D1FFE700E0FFE70299886C8C
:102CD000C8620299CA6A0A20801A88610298C06A8A
:102CE0007E490968884205D9FFE70298C06A7B4996
:102CF0000860FFE70299C86A1422424378488018A6
:102D0000091DFFF7DBF80120019000E0FFE700E07C
:102D1000FFE700E0FFE7019804B080BD80B584B014
:102D200003900398C068C06802900298002803D1FD
:102D3000FFE772B6FFE7FEE702981830FFF70CF8DE
:102D40006148006800281AD1FFE70298001DFFF7CC
:102D500003F80298C06A61490968884205D9FFE70B
:102D60000298C06A5D490860FFE70299C86A1422A8
:102D700042435B488018091DFFF7A0F805E002995F
:102D800018315348FFF79AF8FFE70298C06A55498F
:102D90000968C96A884205D9FFE7012001904E49B8
:102DA000086002E000200190FFE7019804B080BDB8
:102DB000F424202080B584B0002003900290424883
:102DC0000068002803D1FFE772B6FFE7FEE7FFF7D0
:102DD00093F83D480168491E0160006800286DD1E4
:102DE000FFE73A480068002867D0FFE7FFE7384868
:102DF000006800282FD0FFE73548C068C0680390FE
:102E000003981830FEF7A8FF0398001DFEF7A4FFF3
:102E10000398C06A31490968884205D9FFE70398D9
:102E2000C06A2E490860FFE70399C86A142242432A
:102E30002B488018091DFFF741F80398C06A2949FB
:102E40000968C96A884204D3FFE723490120086062
:102E500000E0FFE7CBE70398002803D0FFE7FEF789
:102E600043FEFFE71B48006801900198002817D037
:102E7000FFE7FFE7FFF756FE002804D0FFE71649FB
:102E80000120086000E0FFE70198401E0190FFE785
:102E900001980028EED1FFE70E490020086000E00D
:102EA000FFE70D480068002805D0FFE701200290E9
:102EB000FFF7C0F800E0FFE7FFE700E0FFE7FFF7FC
:102EC00025F8029804B080BDF4242020EC242020B2
:102ED0002C2A2020282A2020802A2020FC24202080
:102EE000242420200C24202080B588B000200790C6
:102EF000FEF7E8F93D480068002820D0FFE70020F1
:102F000003900690059006A805A904AAFEF75CFFA9
:102F1000039B049A05980699029101900520009060
:102F20000C480D49FFF792FD01460C48016000680E
:102F3000002803D0FFE701200790FFE700E0FFE74C
:102F40000798002803D1FFE772B6FFE7FEE707986E
:102F500008B080BD311C0000A23900007C2A20206E
:102F600010B588B00A9C0790069105920493002042
:102F700003900798002803D1FFE772B6FFE7FEE74A
:102F80001A48006800282CD0FFE7069800900598A2
:102F90000190079802900698052818DCFFE7FFF7D4
:102FA0009FFD022809D1FFE7104800680A9A694688
:102FB0000023FFF7A9FA039008E00C48006869466F
:102FC00000231A46FFF7A0FA0390FFE708E007483E
:102FD0000068049A69460023FFF77FFB0390FFE730
:102FE00000E0FFE7039808B010BDC046782A202013
:102FF0000FB410B503A9044B044A029800F0EEF890
:1030000010BC08BC04B01847A51000000000202028
:103010002021020C01D010211046020A01D01046D6
:103020000839020901D01046091F820801D0104654
:10303000891E420801D0881E7047081A7047000098
:1030400002E008C8121F08C1002AFAD17047000028
:103050007047000000000000002001E001C1121FC5
:10306000002AFBD170470000F0B51FB486B0099864
:10307000089A030D0021024314D05148514A1818F0
:10308000504305141198012810981AD0281A401C92
:1030900000264D4F4D49009601910490002812DA08
:1030A000444211E01198012449A3012801D110984C
:1030B000C1430698119A84600360C26041600BB0FE
:1030C000F0BD4042E4E70446210500203F4A001CD1
:1030D00051410391029012E0E00707D032463B468F
:1030E00001990098FDF726F90191009032463B4680
:1030F00010461946FDF71EF906460F466410002CCF
:10310000EAD10498039B0028029A0999089806DAE4
:10311000FDF710F9019B009AFDF70CF905E0FDF7AA
:1031200071F9019B009AFDF76DF904460E460022E5
:10313000284BFDF7FFF903D80020C043014607E004
:103140000022254B20463146FDF742F8FDF7D2F923
:10315000102409E0002C0ADB0A220023FDF707F8FF
:10316000079B30321A55641E02460A43F2D11122DF
:10317000641C079B121B1C19119B012B03D00123FC
:1031800008430ED10AE0084304D01120109000201B
:10319000119077E71098151A6D1E0BE01098824277
:1031A00002DD00236D1C03E0824201DA00236D1E64
:1031B000002BEED0069811998260C16030C07EE786
:1031C00001FCFFFF104D0000000014400000F03F24
:1031D000300000000000F0430000E03FFFB597B072
:1031E0000646002518E2252877D100242746FD4908
:1031F000049400E00443761C32780120203A904089
:103200000842F7D130782A280ED0022230780146C1
:103210003039092916D804990A23594330394018FE
:103220001443761C0490F1E7189802C80491189092
:10323000002904DA0120400304434842049002209C
:103240000443761C30782E2814D10420044370786F
:10325000761C2A2809D11898761C80C8189009E095
:103260000A214F43303FC719761C30780146303968
:103270000929F5D930786C2810D006DC4C281AD0F2
:1032800068280ED06A2817D104E0742813D07A2851
:1032900012D110E00120400504430CE00121090592
:1032A00001E0032109050C437178814203D101201B
:1032B00000052418761C761C3078119066280BD0F7
:1032C00013DC58287DD009DC00287BD04528F6D0B7
:1032D0004628F4D047281AD1A5E118E0632835D054
:1032E000642870D0652812D19DE170286CD008DC6C
:1032F0006728F1D069287BD06E280DD06F2806D1C1
:10330000BAE073282ED0752871D0782859D01A9A2F
:10331000199990476D1C7EE16002400F022809D088
:1033200003280DD00428189801680DD00D60001DE9
:10333000189070E11898EA1701680D604A60F6E786
:10334000189801680D80F2E70D70F0E718986A464A
:1033500001781172001D18900020507202A8009090
:10336000012005E0189802C8189000200091C04381
:1033700061070DD5002101E00199491C0191B94275
:1033800012DA8142F8DB009A515C0029F4D10BE09B
:10339000002101E00199491C01918142FADB019A67
:1033A0000099895C0029F5D1019904981A9B471A64
:1033B00021463846199A00F097FA019940194518A4
:1033C0000BE04FE02CE113E04EE00098009900780C
:1033D000491C00911A9A199990470198401E019032
:1033E000401CF2D1214638461A9B199A10E137E069
:1033F0000A200021009001916002410F022907D0AC
:10340000189A01CA1892C2179446032908D00AE0F4
:103410001898C01DC108C90005C91891944607E055
:1034200000B2C2179446042902D140B2C1178C469B
:1034300000226146944506DA0A4600214042914145
:103440008C462D2102E0210504D52B216A461173FB
:10345000012103E0E10701D02021F7E7029155E0C7
:103460000A200AE0102008E010200090002104202B
:1034700004430191082703E00820002101910090F6
:103480006002410F022907D0189A01CA189200223F
:103490009446032908D008E01898C01DC108C90047
:1034A00005C91891944603E080B2042900D1C0B246
:1034B00000210291210729D51199702906D0009A7F
:1034C0001021019B4A401A4305D00EE040216A4674
:1034D0001173012108E06146014306D030216A469C
:1034E00011731199517302210291009A0821019BD5
:1034F0004A401A430AD16146014301D1610705D50B
:1035000030216A46117301217F1E029111995829B9
:1035100004D035A10E910DA90D910DE037A1F9E769
:103520006146019B009AFCF722FE0E9B8C469B5C39
:103530000D9A521E0D92137061460143F0D10D9801
:1035400005A9081A20300190600703D50120000466
:10355000844300E001270198874201DD381A00E02A
:103560000020019900904118029809180498401A07
:103570000490E00306D421461A9B199A049800F09F
:10358000B3F94519002706E003A81A9AC05D1999F6
:1035900090476D1C7F1C02988742F5DBE0030CD539
:1035A00021461A9B199A049800F09EF9451904E0E7
:1035B0001A9A3020199990476D1C0099481E009066
:1035C0000029F5DC08E00D980D990078491C0D9153
:1035D0001A9A199990476D1C0199481E019000296B
:1035E000F1DC63E1092801003031323334353637FC
:1035F000383961626364656600000000303132333F
:1036000034353637383941424344454600000000DE
:1036100000F05AF94519761C3078002800D0E2E510
:1036200028461BB0F0BD600700D406271898C01DBF
:10363000C108C90048680A680831C30FDB07189140
:10364000190001D09CA108E0210501D59BA104E04F
:10365000E10701D09AA100E09AA1430011985B080C
:10366000109165280CD006DC452809D046281DD0CD
:10367000472841D141E0662818D067283CD13CE07A
:103680000021112F01DB112000E0781C0191009036
:1036900008A911A8FFF7E8FC139905910021119AD8
:1036A00015927F1C12980197009150E00120C007ED
:1036B00003900120019008A9009711A8FFF7D4FCFE
:1036C000139A149905920022119B00921298159357
:1036D000059A0192002901D0104602E0791C401899
:1036E0000190381A01D5019804E04042401E009034
:1036F000781C0190C01B029043E0012F00DA0127E3
:103700000021112F01DD112000E0384601910090C9
:1037100008A911A8FFF7A8FC13990591119A002197
:10372000129815920091019721070CD40599B9427E
:1037300001DB019900E00191012904DD159A491E80
:10374000515C302906D0B84201DA011D05DA0121A9
:10375000029115E00199491EEDE7002805DC00996A
:10376000411800910199091A03E0019A411C914204
:1037700000DD01910099401A401C02900120C00711
:103780000390200706D402990198814202DB0020B1
:10379000C043029000206946C87707AF0121039813
:1037A0000337C907884224D0022011902B201290A1
:1037B000039800280CDA404203902D20129007E075
:1037C0000A210398FCF7B4FC30317F1E0390397056
:1037D0001199481E11900029F2DC03980028EFD1BE
:1037E000791E129808703078202108404530BF1E9D
:1037F000387006A8C01BC01D0390109800780028E0
:1038000000D00120019941180298C01709180398A7
:1038100009180498401A401E0490E00306D421467B
:103820001A9B199A049800F05FF8451910980078CF
:10383000002803D01A9A199990476D1CE00324D5EB
:1038400021461A9B199A049800F04EF845191CE07D
:103850000098002807DB00990598884203DD159839
:10386000405C199901E0199930201A9A9047009804
:103870006D1C401C00900298401E0290002804D14C
:103880001A9A2E20199990476D1C0199481E019093
:103890000029DDDC05E038781A9A7F1C19999047D9
:1038A0006D1C0399481E03900029F4DC21461A9BE5
:1038B000199A0498ACE600002D0000002B000000CF
:1038C0002000000000000000F8B5044600251E4658
:1038D0001746880404D405E039462020B0476D1C03
:1038E000641EF9D52846F8BDFFB50446002581B011
:1038F0001E46C80301D5302700E02027880404D5E0
:1039000005E038460399B0476D1C641EF9D528467A
:1039100005B0F0BD01000000000000000000000044
:103920000000000000000000100000000001000086
:1039300003000000000000003400C4410407F90047
:103940000000000001000000000000000000000076
:10395000000000000807090000000000000000004F
:10396000000000000000000000000000080000004F
:103970001800000000300000444A6D6F746F725FE1
:103980007461736B5F6474200A004C6564426C69F7
:103990006E6B005072696E745461736B0049444CD5
:1039A0004500546D7220537663000000090000004A
:1039B000D039000000002020080000004030000046
:1039C000D839000008002020802C0000583000006A
:0839D00000000000AAAAAAAA47
:04000005000000C136
:00000001FF
