:020000040000FA
:1000000048042020D5000000D9000000DB000000DB
:1000100000000000000000000000000000000000E0
:10002000000000000000000000000000DD000000F3
:100030000000000000000000DF000000E100000000
:10004000E3000000E3000000E3000000E300000024
:10005000E3000000E3000000E3000000E300000014
:1000600000000000E3000000E300000000000000CA
:1000700000000000E3000000E30000005D1100004C
:10008000E3000000E3000000E3000000E3000000E4
:10009000E3000000E300000000000000000000009A
:1000A000E3000000E300000000000000000000008A
:1000B000E300000000000000E3000000E300000097
:1000C0000348854600F0F0FB00480047A5120000F9
:1000D0004804202003480047FEE7FEE7FEE7FEE76E
:1000E000FEE7FEE7C1000000F0B51FB406460020A1
:1000F00082B005464024019100901BE00199224600
:100100000F46304600F0CEF9049A059B801A9941BB
:1001100010D310461946224600F0B4F9361A8F4122
:100120000197224601200021009F00F0ABF938180A
:100130004D4100902046641E0028DFDC019B0098A2
:100140002946324607B0F0BD30B5434351435C18F1
:10015000010C130C0D465D432C1980B292B205467A
:10016000554351430A0C09044D1962415843010C8F
:1001700000044019514130BDF8B502464A40D40F41
:1001800042004B0052085B089A4202D202460846DF
:1001900011464A0023D0C30D4A00DDB2120EAD1A3B
:1001A000202D35DA49020126490AF6058A19002C64
:1001B00000D0524220214F1B1146B9402A4110184D
:1001C000C20D9A4221D0002C17D0012D08DCDA058F
:1001D000801AD20F8019D207DBB200F07CF9F8BD8B
:1001E000DA05801A012340001B06C01880185A4205
:1001F0008018CA0F1043490007E04908C20711439D
:10020000DA05801A80194008801800F05CF9F8BD02
:1002100061000122511A001BF7E70122D207514069
:10022000AAE70122D2075040A6E7024670B54A402D
:10023000D30FDB0740002DD04A002AD0010E140E48
:10024000000212020919400A520A8418E501044604
:100250005443000A120A2E045043A4194219200CD8
:10026000C543AA18120C0125AD03521C52191204E1
:100270007F39240400D0521C104301D44000491E91
:10028000C2B20C06C0092018401C4008802A02D0C7
:1002900003E0002070BD40084000002900DA002083
:1002A000184370BD70B502464A40D50F40004A0061
:1002B000ED0740085208002814D0002A12D0C40DBF
:1002C000D30D41020120C0055202490A520AE41A24
:1002D000091812187D34914201D3641C00E04900D2
:1002E000002C01DA002070BD0023914201D3891A4D
:1002F0000343400849000028F7D100290AD0914261
:1003000002D10121C90705E0914201D2012101E09A
:100310000121C943E005C018401900F0D4F870BDB0
:10032000F0B50C465C4085B0E40FE40703944C0044
:100330000026640859009446490802460296224362
:1003400021D062460A431ED06200570D4A000E03B8
:100350002303550D012402462C492405781B1B0B51
:10036000360B401823432643614600901C46501A22
:10037000B44103D30098401C009002E0921800980A
:100380005B41002803DA0020014605B0F0BD0020E3
:10039000012109050746864611E064461D46141BE7
:1003A000B54106D36546521BB341744607430C431F
:1003B000A646CD0740084908284392185B410546E8
:1003C0000D43EAD11046184313D0604619465040F9
:1003D0007140084306D06046101AB34106D201228C
:1003E000002306E000220123DB0702E00122D243C2
:1003F0005310009874460105381C6141029C039D0E
:100400000019694100F0A0F8BFE70000FD030000FB
:1004100010B500229623114600F05DF810BDC20F02
:10042000D207400040080BD0C10D0723DB01C918DB
:1004300040020905400A1143C208400711437047B2
:1004400000200146704770B50446002903D0002003
:100450002022012310E0002801D00020C043C04624
:10046000C0460DE02546D5408D4205D30D4695404A
:10047000641B1D46954040191546521E002DF1DCA7
:10048000214670BD10B5202A04DB0146203A914078
:10049000002010BD914020239C1A0346E3401943DD
:1004A000904010BD10B5202A04DB0846203AD04009
:1004B000002110BD0B46D340D0402024A21A914009
:1004C0000843194610BD002904DA401C490001D137
:1004D00040084000704770B40024050C05D110247A
:1004E000000402D1002921D01124050E01D10002FF
:1004F0000834050F01D10001241D850F01D18000B2
:10050000A41C002801DB4000641C002908D0202521
:100510002E1B0D46F540A14000D001212943084380
:1005200001061B1B000ADB1D02D5002070BC7047B2
:10053000DB05181880180029F8DA401C4900F5D1AD
:1005400070BC40084000704710B5002B08DA00244A
:10055000401C614192185B411A4301D140084000A0
:1005600010BDF0B51FB482B005460C0003D008469C
:1005700001F00CF802E001F009F82030024600908A
:1005800021462846FFF77EFF049B059A04460F4646
:1005900018431143084314D0184610431BD0009849
:1005A00040210A1A18460599FFF77CFF05460E46BA
:1005B000009A05990498FFF765FF084305D00120CC
:1005C00004E02046394607B0F0BD0020C1170543BE
:1005D0000E432C43374300990E986305401A790562
:1005E000E40A00220C43FD0A0A3002D5002001462D
:1005F000E9E70105101969410C9C0D9D001969413D
:10060000FFF7A2FFDFE70000F0B5074608465840B5
:1006100087B0C00F049048000E46590040084908B2
:10062000BC1A884105D2384631461E4617460B464D
:1006300002465800400810434CD0300D039040054E
:100640005900400D490D0590401A0290402872DA79
:1006500018030121000B090508430190049800923A
:10066000002805D001995242002088410092019053
:10067000029840210A1A01990098FFF703FF0546E6
:100680000C466B4607CB00F027F9C0197141039A5D
:100690000E0D0023D71756401A467A40164344D011
:1006A000049A002A2DD0029A012A039A15DC120519
:1006B000C01A914101263605001C7141D20F059EDA
:1006C000D2070093019202962A462346FFF749FF7C
:1006D00007B0F0BD38463146FAE71605224A0F4604
:1006E000B218C01AB74101210905001C4F4100187A
:1006F0007F41114618187941E20F10436D1964418A
:1007000013E0E2076D0815436408C2071443039A17
:1007100001261205C01A91413605001C7141CE0711
:10072000400830434908C01851412A462346FFF784
:100730000BFFCDE7FFE7049801224000C117121A12
:1007400000238B4104983146C417381AA141EEE7C3
:1007500030B40124E407634030BC55E730B40124D1
:10076000E407614030BC4FE70000E0FFF0B51FB484
:1007700088B00B990998002448400999C00F490096
:1007800049080991C0070B990090490049080B914D
:1007900009990898A64608431CD00B990A98084363
:1007A00018D0099801244000420D4800410D0998D5
:1007B00024050003000B204309900B980003000B55
:1007C00020430B9050181C494018002201901446F9
:1007D000104605E0002001460DB0F0BD032801DA07
:1007E000034600E003239C46C11A0AAE0AE05F00FC
:1007F00008ADED5B4F00F75B7D430027AA187C41F5
:10080000491C5B1E6145F2DD410004AB5A522104D4
:10081000120C0A43240C401C0828DFDB01980290CC
:100820000099704601910090059B049A07990698DB
:10083000FFF797FED0E700000DFCFFFF4A00090319
:100840000123090B1B0519430A4B10B5520D9A429F
:1008500002DA0020014610BD064B34339A4203DC15
:100860009A1AFFF71FFE10BD034BD218FFF70AFEBE
:1008700010BD0000FF030000CDFBFFFF10B50029F5
:1008800004DB0124E40740428C412146002B04DBB9
:100890001C460123DB075242A341994200D19042FA
:1008A00010BD0000000000001CB509480090094878
:1008B000019005460126009C05E0E36807CC334320
:1008C0000C3C98471034AC42F7D3FFF7FDFB000017
:1008D000141F0000341F000010B5202A06DBCB17C0
:1008E0000846203A1041C1170B4306E00B4613415E
:1008F000D0402024A21A91400843194610BD811E01
:10090000091F00BFFCD2704784B00390029101928E
:10091000039800680090009801998843009000981F
:100920000299019A114008430399086004B0704786
:1009300082B001900091009801999522520188504F
:1009400002B0704782B00190009100980199024A6C
:10095000885002B07047C046D012000081B00090AD
:1009600000990120C202C048885001B07047C046BB
:1009700010B584B0069C03900291019200930298F6
:10098000019908430099084306990843034908431D
:10099000039989001F4A885004B010BD81000400EB
:1009A00010B584B0069C03900291019200930298C6
:1009B0000199084300990843069908438121084397
:1009C00003998900134A885004B010BD81B000908B
:1009D000009881000F4A0020885001B07047C0463F
:1009E00082B0019000910098034908430199890061
:1009F000084A885002B070478000040082B001901D
:100A0000009100988021084301998900014A88508B
:100A100002B070470480424081B000900099D54AEE
:100A2000D548885001B0704782B001900091009B7A
:100A300001999D20420188581843885002B07047A0
:100A4000F0B584B001242202344B1968039291431B
:100A500019606E490D686D04FCD5457E25409E6980
:100A6000A64374199C612024045D03252C40DE6993
:100A7000AE433419DC611F4C256805262660466AA2
:100A800037681F6276685E6207262E402660C4695A
:100A90007F252D02DE69AE436406640C3419DC61E7
:100AA0000768456882680092C668026901924269D7
:100AB00002929A69104C14403A07120B2D03ADB202
:100AC000AA183243009D2D072D0D1543019A154399
:100AD000029A1543007E2843084A02401019986183
:100AE0001868039A1043186008688005FCD504B0A4
:100AF000F0BDC046001340408D00F0FF72FF0F00B4
:100B00000649086801229043086070470349086855
:100B100001221202904308607047C04608010B4052
:100B20003949086801221203104308607047C04623
:100B300081B001466846017000780249086001B042
:100B40007047C04608030B4080B582B0014601A83B
:100B5000018001880F2002022B48FFF7D5FE02B06A
:100B600080BDC046F0B5124B1D46083D2E680124DD
:100B7000A6432E600326360330401F68B74338185B
:100B800018601868FF26B043C9B24018186028687A
:100B90002043286018682107002A06D008431860FF
:100BA0001A480168C905FCD5F0BD88431860F0BD3E
:100BB00010010B4080B582B0014601A80170017898
:100BC00002480322FFF7A0FE02B080BD00010B40E7
:100BD00080B582B0014601A8017001780A48302230
:100BE000FFF792FE02B080BD07498860074802689F
:100BF0009202FCD5012212040B6813430B600168BA
:100C0000C906FCD57047C04604010B4004020B40E6
:100C100009490868052210430860704781B00090B8
:100C20000549042008600098401E044908600449F2
:100C30000020086001B0704710E000E014E000E020
:100C400018E000E081B000900099934A012088509C
:100C500001B0704781B0009000990120C202714834
:100C6000885001B07047C0460100002681B0009056
:100C700000980321C902405801B07047B0B54A68D6
:100C80004A4BC250544A80180A78222A58D89300F6
:100C900001A4E3589F46C046370D0000410D0000F7
:100CA000370D0000410D0000410D0000410D000016
:100CB000410D0000410D0000410D0000410D0000FC
:100CC000410D0000410D0000410D0000410D0000EC
:100CD000410D0000410D0000250D0000410D0000F8
:100CE000250D0000410D0000410D0000410D0000E8
:100CF000410D0000410D0000410D0000410D0000BC
:100D0000410D0000410D0000410D0000410D0000AB
:100D1000410D0000410D0000250D0000410D0000B7
:100D2000250D000003231B0704689C4301235B0778
:100D3000E318036004E003231B0704689C4304607A
:100D40000B69C360CB68054C1C40C36A044D1D4051
:100D50002B19C362097A11430160B0BD7777020095
:100D60008888FDFF81B000900099554A5548885009
:100D700001B0704704080000030000B110B5012263
:100D8000120383180C789C604B7883508978014A51
:100D9000815010BD0C11000082B0019000910098AC
:100DA0000199024A885002B07047C04608180000F6
:100DB00082B001900091009801990322D2028850DC
:100DC00002B0704781B000900099034A885801230F
:100DD0001843885001B070470418000081B000909B
:100DE000009911200202885801231843885001B04D
:100DF0007047000082B001900091009B0199034A66
:100E000088581843885002B07047C0462810000028
:100E100081B0009000990120C2020248885001B0C0
:100E20007047C0460100002681B0009000988121E3
:100E300049014058C0B201B070470000B0B511225E
:100E4000120283580124A34383500B888C781C43DF
:100E50008B882343094C1C408358094D1D4063195E
:100E600083508B79CC791C43097A21437E23194026
:100E7000801842689A4351184160B0BD186700005D
:100E8000E798FDFF81B00090009803494058012188
:100E9000084001B07047C0460811000081B00090C2
:100EA000009802494058C0B201B0704724110000B8
:100EB00081B000900099024A0248885001B0704702
:100EC00004080000030000B180B584B003900291D3
:100ED000019203980B49401802990B4AFFF714FD41
:100EE00003980A49401801993F22FFF70DFD039925
:100EF000074A8818895801221140FFF705FD04B000
:100F000080BDC04610110000FFFF0000141100005A
:100F10000411000010B50122120383180C789C60A4
:100F20004978815010BD80B582B001900091019840
:100F300011210902401800990322D203FFF7E4FCB3
:100F400002B080BD82B001906846017000780199BE
:100F500089225201885002B07047000080B586B0E7
:100F60000920FFF733FD0A20FFF730FD142002218E
:100F70000191FFF743FD01991520FFF731FD002195
:100F800002910091012004904204C3043020FFF735
:100F9000EFFC029B04980093020431201946FFF7EE
:100FA000FFFC0498810503916A480590FFF7C0FC97
:100FB00003990598FFF7C6FC049905988902FFF785
:100FC00033FD06B080BDC04680B582B000200190E0
:100FD000FFF7AEFD012000904002FFF7B5FD01983C
:100FE000FFF7E8FDFFF78CFDFFF790FD009A032067
:100FF00000030A21FFF7B6FD0648FFF721FD102088
:10100000FFF7E6FDFFF78CFD0198FFF7EDFD02B05D
:1010100080BDC046941E000080B50348FFF7FEFD6A
:10102000FFF7F6FD80BDC046FFFFFF0080B582B030
:10103000064990480190FFF7A1FE01980449FFF787
:101040001DFE0198FFF7FEFD02B080BDBC1E000032
:10105000C01E000080B582B006493F480190FFF7EE
:101060008DFE01980449FFF709FE0198FFF7EAFD9C
:1010700002B080BDD41E0000D81E000080B582B032
:101080000F4987480190FFF745FF01980D49FFF789
:10109000D5FE01980021FFF746FF019815212D226A
:1010A000FFF712FF019801218902FFF7A3FE0F202D
:1010B000032100F067F80198FFF790FE02B080BDB1
:1010C000EC1E0000EE1E000080B500F017F8FFF7E0
:1010D00045FFFFF779FFFFF7BDFFFFF7A7FFFFF71A
:1010E000CDFFFFF799FF0349B82200208854024939
:1010F000885480BD64012020A800202080B586B0DF
:1011000013480190FFF788FC12480290FFF784FC17
:1011100011480390FFF726FE56480490FFF722FE81
:101120005F480590FFF7C4FE0198FFF717FC02988F
:10113000FFF714FC0398FFF78DFD0498FFF78AFD75
:101140000598FFF765FE1020FFF7D9FB06B080BDBC
:1011500000000A4000200A400000864010B55048B8
:10116000FFF762FE0B280CD1FFE74D48FFF796FE14
:101170002F4980240A59531C0B51885400F044F81D
:10118000FFE710BD70B582B0024601A80270009161
:1011900000214056002816D4FFE7002401A9085773
:1011A0000322D3431840174A805809578C07E50E8D
:1011B000FF24AC40A043009CA401E4B2AC40204317
:1011C000194088501AE001A908780F2420400838F7
:1011D0000322D34318400A4A8058002549578D07F7
:1011E000EE0EFF25B540A843009DAD01EDB2B54020
:1011F00028432140083919408850FFE702B070BDEC
:101200001CED00E000E400E081B009488021405876
:101210007F2806DBFFE706498022002088500090E7
:1012200002E001200090FFE7009801B07047C0463F
:101230002400202080B584B003A9088003984100D1
:1012400002A80090018001880A480190FFF7A4FDE0
:10125000009901980988FFF7ABFD0198FFF7B2FDEF
:10126000FFE70448FFF702FD002801D0FFE7F8E799
:1012700004B080BD0020864080B582B0019000910E
:10128000FFE70748FFF7FEFD002801D0FFE7F8E77A
:1012900001A801780248FFF755FE019802B080BD11
:1012A0000080104080B584B000200390FFF70CFF51
:1012B000502000F00DF9154800F054F8144908606A
:1012C00000F07EF813490860FFE700F079F8114953
:1012D00001910968FEF7A1FF0F490291086000F033
:1012E0006FF801990860094800F03CF8014602983F
:1012F000074A11600068FFF792F802460B4607485C
:1013000000F034F96420FFF795FFDEE7100020209D
:101310000C0020201400202008002020F81E0000CF
:1013200081B00F480078002818D1FFE70C49012050
:10133000087086480068009000988A4909688842C9
:1013400005D9FFE786490868401C0860FFE7009858
:1013500084490860024900200870FFE701B0704727
:101360002002202080B584B0039078480068029065
:10137000029803990968884206D8FFE70398006835
:101380000299401A019008E0029903980068401AF7
:101390000121090640180190FFE7029803990860AF
:1013A000FFF7BEFF0198FFF733F800906948006827
:1013B000FFF72EF801460098FEF774FF04B080BDD9
:1013C00080B586B000F028F8404803900068FFF729
:1013D0001FF80146039801914068FFF719F801468C
:1013E000019802910A49FEF720FF0299FEF7C4FE18
:1013F0000146039804918068FFF70AF80549FEF753
:1014000014FF0499FEF7B8FE0590059806B080BD5C
:1014100000007A446F12833A10B590B04B480068D0
:101420000F90FFF77DFF4E480168080A09060F9BE1
:10143000454AD21A00230593891858410C910D9002
:101440000C980D9A48494A6008600C980D99414AD9
:1014500001921268FEF748FE019A059B0B910A90D3
:101460000D9802900C9803900A980B991268FEF759
:101470006BFE059B044602980A460399091B90419E
:101480000891099008980999334A04921268FEF766
:101490002BFE049A059B079009980899079C1268EF
:1014A0006243891A984108910990089809992B4A32
:1014B0001268FEF719FE06900A980449086007981A
:1014C00048600698886010B010BDC04638022020E1
:1014D00080B586B005901A49086804221043086058
:1014E000184A19481060194A0392002004901060AD
:1014F000086801221043086005981549019141438D
:1015000014480290016000687D21C900FEF79BFF2E
:10151000019902460298104B1A600068FEF793FF8B
:101520000399024604980D4B1A600D4A1060096831
:101530000C4A11600C494860086006B080BDC04686
:1015400010E000E014E000E0FFFFFF0018E000E022
:1015500040420F00180020201C00202020002020E6
:101560002802202024022020300220200FB410B5B1
:1015700003A9044B044A029800F0F0F810BC08BC20
:1015800004B0184779120000000020202021020C2E
:1015900001D010211046020A01D010460839020974
:1015A00001D01046091F820801D01046891E42084A
:1015B00001D0881E7047081A704700000000000024
:1015C00002E008C8121F08C1002AFAD170470000C3
:1015D0007047000000000000002001E001C1121F60
:1015E000002AFBD170470000F0B51FB486B00998FF
:1015F000089A030D0021024314D05148514A18188B
:10160000504305141198012810981AD0281A401C2C
:1016100000264D4F4D49009601910490002812DAA2
:10162000444211E01198012449A3012801D11098E6
:10163000C1430698119A84600360C26041600BB098
:10164000F0BD4042E4E70446210500203F4A001C6B
:1016500051410391029012E0E00707D032463B4629
:1016600001990098FFF782F80191009032463B46BD
:1016700010461946FFF77AF806460F466410002C0C
:10168000EAD10498039B0028029A0999089806DA7F
:10169000FFF76CF8019B009AFFF768F805E0FEF78A
:1016A0003FFE019B009AFEF73BFE04460E460022D9
:1016B000284BFFF7E3F803D80020C043014607E0BA
:1016C0000022254B20463146FEF79EFFFFF7B6F875
:1016D000102409E0002C0ADB0A220023FEF704FD97
:1016E000079B30321A55641E02460A43F2D111227A
:1016F000641C079B121B1C19119B012B03D0012397
:1017000008430ED10AE0084304D0112010900020B5
:10171000119077E71098151A6D1E0BE01098824211
:1017200002DD00236D1C03E0824201DA00236D1EFE
:10173000002BEED0069811998260C16030C07EE720
:1017400001FCFFFF104D0000000014400000F03FBE
:10175000300000000000F0430000E03FFFB597B00C
:101760000646002518E2252877D100242746FD49A2
:10177000049400E00443761C32780120203A904023
:101780000842F7D130782A280ED00222307801465C
:101790003039092916D804990A2359433039401899
:1017A0001443761C0490F1E7189802C8049118902D
:1017B000002904DA01204003044348420490022037
:1017C0000443761C30782E2814D10420044370780A
:1017D000761C2A2809D11898761C80C8189009E030
:1017E0000A214F43303FC719761C30780146303903
:1017F0000929F5D930786C2810D006DC4C281AD08D
:1018000068280ED06A2817D104E0742813D07A28EB
:1018100012D110E00120400504430CE0012109052C
:1018200001E0032109050C437178814203D10120B5
:1018300000052418761C761C3078119066280BD091
:1018400013DC58287DD009DC00287BD04528F6D051
:101850004628F4D047281AD1A5E118E0632835D0EE
:10186000642870D0652812D19DE170286CD008DC06
:101870006728F1D069287BD06E280DD06F2806D15B
:10188000BAE073282ED0752871D0782859D01A9ACA
:10189000199990476D1C7EE16002400F022809D023
:1018A00003280DD00428189801680DD00D60001D84
:1018B000189070E11898EA1701680D604A60F6E721
:1018C000189801680D80F2E70D70F0E718986A46E5
:1018D00001781172001D18900020507202A800902B
:1018E000012005E0189802C8189000200091C0431C
:1018F00061070DD5002101E00199491C0191B94210
:1019000012DA8142F8DB009A515C0029F4D10BE035
:10191000002101E00199491C01918142FADB019A01
:101920000099895C0029F5D1019904981A9B471AFE
:1019300021463846199A00F097FA0199401945183E
:101940000BE04FE02CE113E04EE0009800990078A6
:10195000491C00911A9A199990470198401E0190CC
:10196000401CF2D1214638461A9B199A10E137E003
:101970000A200021009001916002410F022907D046
:10198000189A01CA1892C2179446032908D00AE08F
:101990001898C01DC108C90005C91891944607E0F0
:1019A00000B2C2179446042902D140B2C1178C4636
:1019B00000226146944506DA0A46002140429141E0
:1019C0008C462D2102E0210504D52B216A46117396
:1019D000012103E0E10701D02021F7E7029155E062
:1019E0000A200AE0102008E01020009000210420C6
:1019F00004430191082703E0082000210191009091
:101A00006002410F022907D0189A01CA18920022D9
:101A10009446032908D008E01898C01DC108C900E1
:101A200005C91891944603E080B2042900D1C0B2E0
:101A300000210291210729D51199702906D0009A19
:101A40001021019B4A401A4305D00EE040216A460E
:101A50001173012108E06146014306D030216A4636
:101A600011731199517302210291009A0821019B6F
:101A70004A401A430AD16146014301D1610705D5A5
:101A800030216A46117301217F1E02911199582954
:101A900004D035A10E910DA90D910DE037A1F9E704
:101AA0006146019B009AFEF71FFB0E9B8C469B5CD8
:101AB0000D9A521E0D92137061460143F0D10D989C
:101AC00005A9081A20300190600703D50120000401
:101AD000844300E001270198874201DD381A00E0C5
:101AE0000020019900904118029809180498401AA2
:101AF0000490E00306D421461A9B199A049800F03A
:101B0000B3F94519002706E003A81A9AC05D199990
:101B100090476D1C7F1C02988742F5DBE0030CD5D3
:101B200021461A9B199A049800F09EF9451904E081
:101B30001A9A3020199990476D1C0099481E009000
:101B40000029F5DC08E00D980D990078491C0D91ED
:101B50001A9A199990476D1C0199481E0190002905
:101B6000F1DC63E109280100303132333435363796
:101B700038396162636465660000000030313233D9
:101B80003435363738394142434445460000000079
:101B900000F05AF94519761C3078002800D0E2E5AB
:101BA00028461BB0F0BD600700D406271898C01D5A
:101BB000C108C90048680A680831C30FDB071891DB
:101BC000190001D09CA108E0210501D59BA104E0EA
:101BD000E10701D09AA100E09AA1430011985B08A7
:101BE000109165280CD006DC452809D046281DD068
:101BF000472841D141E0662818D067283CD13CE015
:101C00000021112F01DB112000E0781C01910090D0
:101C100008A911A8FFF7E8FC139905910021119A72
:101C200015927F1C12980197009150E00120C00787
:101C300003900120019008A9009711A8FFF7D4FC98
:101C4000139A149905920022119B009212981593F1
:101C5000059A0192002901D0104602E0791C401833
:101C60000190381A01D5019804E04042401E0090CE
:101C7000781C0190C01B029043E0012F00DA01277D
:101C80000021112F01DD112000E038460191009064
:101C900008A911A8FFF7A8FC13990591119A002132
:101CA000129815920091019721070CD40599B94219
:101CB00001DB019900E00191012904DD159A491E1B
:101CC000515C302906D0B84201DA011D05DA012144
:101CD000029115E00199491EEDE7002805DC009905
:101CE000411800910199091A03E0019A411C91429F
:101CF00000DD01910099401A401C02900120C007AC
:101D00000390200706D402990198814202DB00204B
:101D1000C043029000206946C87707AF01210398AD
:101D20000337C907884224D0022011902B2012903B
:101D3000039800280CDA404203902D20129007E00F
:101D40000A210398FEF77FFB30317F1E0390397024
:101D50001199481E11900029F2DC03980028EFD158
:101D6000791E129808703078202108404530BF1E37
:101D7000387006A8C01BC01D03901098007800287A
:101D800000D00120019941180298C0170918039842
:101D900009180498401A401E0490E00306D4214616
:101DA0001A9B199A049800F05FF84519109800786A
:101DB000002803D01A9A199990476D1CE00324D586
:101DC00021461A9B199A049800F04EF845191CE018
:101DD0000098002807DB00990598884203DD1598D4
:101DE000405C199901E0199930201A9A904700989F
:101DF0006D1C401C00900298401E0290002804D1E7
:101E00001A9A2E20199990476D1C0199481E01902D
:101E10000029DDDC05E038781A9A7F1C1999904773
:101E20006D1C0399481E03900029F4DC21461A9B7F
:101E3000199A0498ACE600002D0000002B00000069
:101E40002000000000000000F8B5044600251E46F2
:101E50001746880404D405E039462020B0476D1C9D
:101E6000641EF9D52846F8BDFFB50446002581B0AB
:101E70001E46C80301D5302700E02027880404D57A
:101E800005E038460399B0476D1C641EF9D5284615
:101E900005B0F0BD010000000000000000000000DF
:101EA0000000000000000000100000000001000021
:101EB00003000000000000003400C4410407F900E2
:101EC0000000000001000000000000000000000011
:101ED00000000000080709000000000000000000EA
:101EE00000000000000000000000000008000000EA
:101EF0001800000000300000616C676F7269746840
:101F00006D5F7461736B5F64656C74613A25660D17
:101F10000A000000381F0000000020200800000018
:101F2000C0150000401F00000800202040040000F1
:101F3000D8150000000000000000000000000000B4
:04000005000000C136
:00000001FF
