:020000040000FA
:10000000B0392020D5000000D90000009501000083
:1000100000000000000000000000000000000000E0
:10002000000000000000000000000000DD000000F3
:10003000000000000000000013010000F9070000AC
:10004000E3000000E3000000E3000000E300000024
:10005000E3000000E3000000E3000000E300000014
:1000600000000000E3000000E300000000000000CA
:1000700000000000E3000000E300000009080000A9
:10008000E3000000E3000000E3000000E3000000E4
:10009000E3000000E300000000000000000000009A
:1000A000E3000000E300000000000000000000008A
:1000B000E300000000000000E3000000E300000097
:1000C0000348854600F0E4F800480047C1020000FC
:1000D000B039202003480047FEE7FEE7FEE7FEE7D1
:1000E000FEE7FEE7C1000000EFF3108072B6704734
:1000F00080F3108870472A4A1368012B03D001232C
:100100001360284A1060284A116028482849016075
:100110007047EFF3108272B62148016800291DD0A4
:10012000002101601F48016800290AD0EFF309810E
:10013000203900680160F0C144464D4656465F468E
:10014000F0C1194909680968F0C9F0B4F0C9A046BE
:10015000A946B246BB46F0BC81F3098882F31088F9
:10016000042040420047104908600E490020086002
:100170000B49012008600F480F49026811430160D4
:100180000A480B4901600D480068006880F3088840
:1001900062B67047EFF3098000B502F025F900BDA3
:1001A00094372020783420208034202004ED00E093
:1001B0000000001020ED00E00000FFFF08ED00E06F
:1001C00003460B439B0703D009E008C9121F08C070
:1001D000042AFAD203E00B780370401C491C521E1B
:1001E000F9D27047D2B201E00270401C491EFBD226
:1001F00070470022F6E710B513460A460446194632
:10020000FFF7F0FF204610BD10B5044605E00B785F
:100210000370401C002B00D0491C521EF7D2204610
:1002200010BD421C0178401C0029FBD1801A704788
:1002300030B505460020034600E05B1C934205D222
:10024000EC5CC85C201A01D1002CF6D130BD70B531
:100250000446002903D000202022012310E00028BA
:1002600001D00020C043C046C0460DE02546D54021
:100270008D4205D30D469540641B1D46954040199F
:100280001546521E002DF1DC214670BD0000000015
:100290001CB5094800900948019005460126009CBC
:1002A00005E0E36807CC33430C3C98471034AC427C
:1002B000F7D3FFF709FF0000D4420000F44200002A
:1002C00010B582B0FFF710FF02F066F802F0D6FC1E
:1002D00002F04AFE02F0D2FD14200A2100910190A2
:1002E00001200302084809490024224602F044FE86
:1002F00002F0B0FF02F03EFE02F0E4FE02F01EFE4D
:10030000204602B010BDC046F4410000B518000000
:10031000811E091F00BFFCD270470000F0B584B0F9
:10032000012422022A4B196803929143196048491B
:100330000D686D04FCD5457E25409E69A643741961
:100340009C612024045D03252C40DE69AE433419F2
:10035000DC61204C256805262660466A37681F62E6
:1003600076685E6207262E402660C4697F252D02CE
:10037000DE69AE436406640C3419DC6107684568C5
:1003800082680092C66802690192426902929A6983
:10039000114C14403A07120B2D03ADB2AA18324388
:1003A000009D2D072D0D1543019A1543029A154303
:1003B000007E2843094A0240101998611868039A80
:1003C0001043186008688005FCD504B0F0BDC04635
:1003D00008010B40001340408D00F0FF72FF0F003A
:1003E000F0B5124B1D46083D2E680124A6432E6031
:1003F0000326360330401F68B74338181860186862
:10040000FF26B043C9B2401818602868204328600E
:1004100018682107002A06D0084318600C480168B4
:10042000C905FCD5F0BD88431860F0BD10010B4034
:100430008D498860064802689202FCD501221204A8
:100440000B6813430B600168C906FCD57047C046B2
:1004500004020B40B0B54A68364BC250364A801889
:100460000A78222A58D8930001A4E3589F46C04630
:100470000F050000190500000F0500001905000018
:1004800019050000190500001905000019050000F4
:1004900019050000190500001905000019050000E4
:1004A00019050000190500001905000019050000D4
:1004B000FD04000019050000FD04000019050000FE
:1004C00019050000190500001905000019050000B4
:1004D00019050000190500001905000019050000A4
:1004E0001905000019050000190500001905000094
:1004F000FD04000019050000FD04000003231B0794
:1005000004689C4301235B07E318036004E00323B2
:100510001B0704689C4304600B69C360CB68074CED
:100520001C40C36A064D1D402B19C362097A114352
:100530000160B0BD081800000418000077770200C1
:100540008888FDFF10B50122120383180C789C6087
:100550004B7883508978014A815010BD0C110000FE
:10056000B0B51122120283580124A34383500B8893
:100570008C781C438B882343094C1C408358094DBD
:100580001D40631983508B79CC791C43097A214330
:100590007E231940801842689A4351184160B0BDCB
:1005A00018670000E798FDFF10B5012212038318B9
:1005B0000C789C604978815010BD00000B480021E8
:1005C000016041608221C1620949016309480A4909
:1005D00001600A494160012081059F4A1160116351
:1005E000800207490A6802430A6070472880424037
:1005F00082000400C480424081000E00810001009E
:10060000A0330A4070B51748002404600F20000290
:10061000154E3168814301256802081830600320B7
:10062000C143321F13680B4013607168A9437160A6
:10063000290272688A43726000030A212A46FFF782
:10064000CFFE0A48FFF76AFE3068102101432020E0
:100650008143316028033168014331602046FFF750
:10066000E7FE70BD08030B4004010B40803E000014
:10067000084809494160FF210906084A13688B436D
:100680000321890759181160002181600721016049
:100690007047C04610E000E07F38010020ED00E028
:1006A00010B5064C06492046FFF74CFF0549204689
:1006B000FFF7D0FE04480121016010BD00208640F4
:1006C000A83E0000AC3E00000831864010B5064C44
:1006D00006492046FFF736FF05492046FFF7BAFED8
:1006E00004480121016010BD00008640C03E0000AA
:1006F000C43E000008118640B0B5194C1949204687
:10070000FFF752FF18492046FFF72AFF0321CA03CB
:1007100016480368934303600269154B1340153371
:10072000036142692D2313431222934343614368BB
:100730000122134044689443E318436093020D4C34
:1007400025681D432560FF231B060B4C25689D4330
:10075000890769182160016811430160B0BDC04676
:1007600000801040D83E0000DA3E000000911040AA
:100770000000FFFF289010400CE400E080B500F07E
:1007800017F8FFF71BFFFFF73DFFFFF79FFFFFF78E
:1007900087FFFFF7B1FFFFF76BFFB8200249002288
:1007A0000A5402490A5480BD5C012020180220200E
:1007B000B0B50A480A4941600A4A51600A4B59607B
:1007C0000A4C61600A4D69600A4901601160196054
:1007D000216029601020FFF79BFDB0BD00080A4092
:1007E000030000B100280A40000886400028864027
:1007F000008810400100002680B501F0A3FE02F041
:10080000C1FD01F0A9FE80BD70470000002804D0A2
:10081000C1B2002903D0012010E000207047FF2161
:100820000A02024002D0110A092007E0090401402F
:1008300002D0090C112001E0010E1920014A515C7F
:1008400040187047803D00000848002101700120D9
:100850008005014908607047A0320A400348012121
:1008600001708805024908607047C046500020208A
:1008700090320A4080B500F077FC002080BD80B542
:1008800000F0CAFD002080BD0120C00302490860BD
:10089000024908607047C04680E200E000E100E0E5
:1008A00070B582B01A481B4901601B481B490160A2
:1008B00001247821204601F087FC194E3060002881
:1008C0001DD00A20192100910190630215A017493B
:1008D0000024224602F050FB0546306814A122464F
:1008E000234602F015F930682121425C02231343AC
:1008F0004354002D08D0284602F0ACFC04E00EA0C2
:1009000001F036FE0020C443204602B070BDC04650
:100910004C002020D4420000480020201442000057
:10092000A8372020747368656C6C000051090000C2
:1009300073687278000000006E6F206D656D6F72D5
:100940007920666F72207368656C6C0A0000000085
:1009500084B08D4D28682123C15C01248A0721437E
:100960000293C154039420020190002A03D48748C3
:10097000002101701EE086480168002904D08348E8
:10098000019AFFF741FC15E001F0D6F9002803D0E9
:100990007E488049052202E07C487F490722FFF714
:1009A0000FFC7A4C2046FFF73CFC3E2121542018D6
:1009B00000214170754801F0DBFD784F01E003989C
:1009C000087001F0F9FC2E68314620311B28F6D062
:1009D0000446304672300A78022A08D0012A00D034
:1009E000B0E05B2C00D0ABE002200870E9E7002209
:1009F0000A70214641390229E3D3442C00D9EBE0A7
:100A0000A10001A251588F461D0B0000E30B00000E
:100A1000E30B0000E30B0000E30B0000E30B00001E
:100A2000E30B0000E30B0000EF0B0000570C00008D
:100A3000A30B0000E30B0000E30B0000A30B00007E
:100A4000E30B0000E30B0000E30B0000E30B0000EE
:100A5000E30B0000E30B0000E30B0000E30B0000DE
:100A6000E30B0000E30B0000E30B0000E30B0000CE
:100A7000E30B0000E30B0000E30B0000E30B0000BE
:100A8000E30B0000E30B0000E30B0000E30B0000AE
:100A9000E30B0000E30B0000E30B0000E30B00009E
:100AA000E30B0000E30B0000E30B0000E30B00008E
:100AB000E30B0000E30B0000E30B0000E30B00007E
:100AC000E30B0000E30B0000E30B0000E30B00006E
:100AD000E30B0000E30B0000E30B0000E30B00005E
:100AE000E30B0000E30B0000E30B0000E30B00004E
:100AF000E30B0000E30B0000E30B0000E30B00003E
:100B0000E30B0000E30B0000E30B0000E30B00002D
:100B1000E30B00001F0B0000790D000051E7418836
:100B20000088814200D34CE770182221415CBA480A
:100B300001F01EFD28687421425A521C425240E7BF
:100B400000220A700D2C47D8A10001A251588F46EF
:100B5000A10B0000E30B0000E30B0000E30B00001F
:100B6000E30B0000E30B0000E30B0000E30B0000CD
:100B7000EF0B0000570C0000A30B0000E30B00007C
:100B8000E30B0000A30B0000A83720205400202016
:100B900058012020E5410000EA410000E341000047
:100BA0000FE701F0C9F801280DD128680299415CCE
:100BB000C90703D0994801F0DBFC28687221415A2B
:100BC000223000F033FF28680299405C80078F4C88
:100BD00062D400202070F1E07F2C08D0FF2C00D1DF
:100BE000EFE60188502960D3002101808BE0418825
:100BF000002900D1E5E64A1E428003885B1E03807F
:100C000092B29BB2934200D89AE02236B018711883
:100C10009A1A01F061FD28687224015B40182221B4
:100C20000022425428687421415A411822317DA083
:100C300001F09EFC2868015B72304088884200D930
:100C4000BFE6461E384601F093FC2868005B761C20
:100C50008642F7D3B5E64088002809D000243846FC
:100C600001F086FC2E687420305A641C8442F6D34E
:100C70006A4801F07DFC223601F05EF8012802D1BD
:100C8000304600F027FE28680299405C80075F4CE0
:100C900061D400202070A7E05B480168002963D080
:100CA0002046019AFFF7B0FA88E0408888422AD2AD
:100CB0000A1A311808462330223101F00DFD286848
:100CC0007421415A40182221445428680299415CF9
:100CD000C90708D00146743109884118223155A04E
:100CE00001F046FC28687224015B02467232568885
:100CF0008E4215D2384601F03BFC2868015B761C19
:100D00008E42F7D30CE070182221445428680299CF
:100D1000415CC90704D04048214601F029FC2868FD
:100D20007221425A521C425272304188491C418001
:100D300091B2502900D244E600214180018040E672
:100D400037A001F015FC28687221415A4018222171
:100D50000022425435E62C480168002919D020466B
:100D6000019AFFF751FA3FE000F0E6FF002818D0A3
:100D700005222046264917E04088002800D120E6B9
:100D8000384601F0F5FB28687421425A521E42523F
:100D900017E600F0D1FF002819D0052220461C4993
:100DA00018E0072220461B49FFF70AFA2046FFF702
:100DB00038FA3E212154201800214170204601F0CC
:100DC000D7FB286822305421FFF713FAF9E50722F0
:100DD00020461049FFF7F4F92046FFF722FA3E219A
:100DE000215420180021417010A02146324601F004
:100DF000BFFB2C6820462230FFF713FA72216052A5
:100E000072346080DDE5C046580120205400202067
:100E1000E5410000EA410000F14100007F4100008F
:100E2000082008000825732020080000257325737A
:100E3000000000002573000007490A68D20708D0A7
:100E40000A68D20705D00A68D20702D00A68D2071A
:100E5000F3D1C2B28A6170470891104080B502A0F8
:100E600001F086FB002080BD48656C6C6F205254F9
:100E70002D546872656164210A0000007D208400A1
:100E8000FFF7ECFC204602F07DF9FFF7DDFC204681
:100E900002F078F9F4E70000F0B581B010A001F09D
:100EA00067FB1448056814480768AF4214D213A4BE
:100EB00002E00C37AF420FD23E6802223046214694
:100EC000FFF7B6F90028F4D07A680DA0314601F09A
:100ED0004FFB08480568ECE7002001B0F0BDC046B4
:100EE0002D2D46756E6374696F6E204C6973743A6C
:100EF0000A0000004C002020480020205F5F000016
:100F0000252D313673202D2D2025730A0000000079
:100F1000F0B591B00520059001F022FD044670A0C7
:100F2000082178A2049101F023FB784D284601F0B6
:100F30001FFB284601F01CFB284601F019FB284640
:100F400001F016FB284601F013FB284601F010FBC8
:100F5000284601F00DFB284601F00AFB6CA001F0C9
:100F600007FB261D0027774C069604E0079F002FFD
:100F7000069E00D1B0E0002F354600D03D46FFF779
:100F8000B3F8002F06D0391F09787F220A40052ABE
:100F900000D09FE02968B14200D19BE00991096827
:100FA0000027B1421FD00A910968B1421DD00B91B0
:100FB0000968B1421BD00C910968B14219D00D915A
:100FC0000968B1420797059A089219D00E910968ED
:100FD000B14210D00F910968B1420ED00791109123
:100FE000049908910CE0012108E0022106E00321A8
:100FF00004E0042102E0062100E0072108910797A0
:10100000FFF776F806E0514801F0B2FA7F1C089825
:101010008742ABD0B80009A90D582E1FFFF764F81E
:101020003678FFF765F87F2030400528EED12B4653
:101030000C3BA88AE98AAA680835AA4210D0002287
:101040002E463668AE421FD03668AE4219D036689A
:10105000AE4218D0121D3668AE42F2D1521E13E0D5
:1010600000222E463668AE422BD03668AE4225D0DE
:101070003668AE4224D0121D3668AE42F2D1521EFE
:101080001FE0521C00E0921C009101900292082186
:1010900026A00A4601F06CFA2E68AE42B3D0314663
:1010A0001439204601F064FA3068A842ABD02648D3
:1010B00001F05EFA3668AE42F1D1A4E7521C00E0BE
:1010C000921C009101900292082121A00A4601F091
:1010D0004FFA9BE7FFF70CF8002011B0F0BDC046B7
:1010E000252D2A2E7320656E7472792073697A65B6
:1010F0002073757370656E64207468726561640A2C
:10110000000000006D61696C626F78009C41000016
:10111000202D2D2D2D20202D2D2D2D202D2D2D2D33
:101120002D2D2D2D2D2D2D2D2D2D0A00252D2A2E49
:101130002A7320253034642020253034642025642F
:101140003A000000B24100009E4100007F410000D3
:10115000252D2A2E2A732025303464202025303472
:10116000642025640A00000080B50848016808A0D2
:1011700001F0FEF90B4801680BA001F0F9F90F48E6
:1011800001680FA001F0F4F980BDC046F4072020EB
:10119000746F74616C206D656D6F72793A2025648F
:1011A0000A000000AC37202075736564206D656D02
:1011B0006F7279203A2025640A000000F007202091
:1011C0006D6178696D756D20616C6C6F63617465BC
:1011D00064206D656D6F72793A2025640A00000005
:1011E000F0B58FB00220039001F0BAFB04466EA068
:1011F000082174A2029101F0BBF9754D284601F057
:10120000B7F9284601F0B4F9284601F0B1F92846AB
:1012100001F0AEF9284601F0ABF9284601F0A8F933
:10122000284601F0A5F9284601F0A2F969A001F0CD
:101230009FF9261D0027714C049604E0059F002F9E
:10124000049E00D1ADE0002F354600D03D46FEF7AC
:101250004BFF002F06D0391F09787F220A40022A4F
:1012600000D09CE02968B14200D198E0079109685C
:101270000027B1421FD008910968B1420597039A2F
:10128000069225D009910968B14216D00A910968E1
:10129000B14214D00B910968B14212D00C91096887
:1012A000B14210D00D910968B1420ED005910E9156
:1012B000029906910CE0012108E0032106E00421D7
:1012C00004E0052102E0062100E0072106910597D0
:1012D000FEF70EFF06E04B4801F04AF97F1C069826
:1012E0008742ABD0B80007A90D582E1FFEF7FCFEB1
:1012F0003678FEF7FDFE7F2030400228EED12B46E7
:101300000C3B288AA9680835A94210D000212A463A
:101310001268AA421FD01268AA4219D01268AA42C3
:1013200018D0091D1268AA42F2D1491E13E000210B
:101330002A461268AA422AD01268AA4224D0126809
:10134000AA4223D0091D1268AA42F2D1491E1EE00A
:10135000491C00E0891C00900191082123A00A4645
:1013600001F006F92E68AE42B5D031461439204658
:1013700001F0FEF83068A842ADD0214801F0F8F83D
:101380003668AE42F1D1A6E7491C00E0891C009006
:10139000019108211CA00A4601F0EAF89EE7FEF739
:1013A000A7FE00200FB0F0BD252D2A2E7320762039
:1013B000202073757370656E642074687265616453
:1013C0000A00000073656D6170686F72650000004F
:1013D0009C410000202D2D2D202D2D2D2D2D2D2D2E
:1013E0002D2D2D2D2D2D2D0A00000000252D2A2E0E
:1013F0002A7320253033642025643A00B24100006E
:101400009E4100007F410000252D2A2E2A732025B1
:101410003033642025640A00F0B58FB001200390BA
:1014200001F09EFA06466548082165A2029101F086
:101430009FF8654F384601F09BF8384601F098F860
:10144000384601F095F8384601F092F8384601F038
:101450008FF8384601F08CF8384601F089F83846A4
:1014600001F086F859A001F083F8341D002005949E
:1014700004E004980028059C00D19BE0002800D0DF
:1014800004460546FEF730FE002D059B07D0294691
:10149000291F09787F220A40012A00D088E02168AC
:1014A000994200D184E007910968002499422246BC
:1014B000039E26D008910968994216D009910968BF
:1014C000994214D00A910968994212D00B91096887
:1014D000994210D00C91096899420ED00D910A687A
:1014E0009A420CD00E92029E0BE0022608E00326E0
:1014F00006E0042604E0052602E0062600E00726B2
:1015000022460492FEF7F4FD069604E0FEF7F0FD95
:10151000641CB442ADD0A00007A90F583D1FFEF7D0
:10152000E3FD29787F220A40012AEFD13D46283584
:10153000FEF7DEFD687800903B460C3B082133A0A7
:101540000A4601F015F829780F200840042804D82D
:10155000800031A1085801F00BF8FE69304601788F
:1015600023290FD14178232909D18178232908D152
:10157000011DC07823280846F1D0481E02E0401C17
:1015800000E0801C301A3D6A411964204843294616
:10159000FEF75DFE03463869796B7A6A0091019225
:1015A000A919091A21A02A4600F0E2FF069EAFE71A
:1015B000FEF79EFD00200FB0F0BDC04628410000A0
:1015C00074687265616400009C410000202D2D2D1F
:1015D00020202D2D2D2D2D2D2D202D2D2D2D2D2D62
:1015E0002D2D2D2D202D2D2D2D2D2D2D2D2D2D2045
:1015F000202D2D2D2D2D2D20202D2D2D2D2D2D2D42
:101600002D2D2D202D2D2D0A00000000252D2A2EF8
:101610002A7320253364200081410000934100009B
:10162000A0410000A94100008A4100002030782537
:101630003038782030782530387820202020253028
:101640003264252520202030782530387820253038
:1016500033640A00F0B58DB00A2001F081F9054627
:101660004EA0082157A2029100F082FF574E30464B
:1016700000F07EFF304600F07BFF304600F078FF40
:10168000304600F075FF304600F072FF304600F043
:101690006FFF304600F06CFF304600F069FF4CA051
:1016A00000F066FF2D1D0026039503E0049E002E2A
:1016B000039D6AD0002E2C4600D03446FEF714FD60
:1016C000002E05D0311F09787F220A400A2A5AD1FC
:1016D0002168A94257D0059109680022A9420492C5
:1016E0001BD006910968A94219D007910968A9423F
:1016F00017D008910968A94215D009910968A94233
:1017000013D00A910968A94211D00B910968A94226
:101710000FD00C910491029F0CE001270AE00227F0
:1017200008E0032706E0042704E0052702E0062777
:1017300000E00727FEF7DCFC05AC04E0FEF7D8FC70
:10174000241D7F1EB2D02668351FFEF7CDFC2978F8
:101750007F220A400A2AF1D1FEF7CAFCB069F1697A
:101760000090019133460C3B082122A00A4600F06C
:10177000FFFEF01E0078C00701D127A000E023A0E3
:1017800000F0F6FEDCE7FEF7B3FC01F0F7FD0146E2
:10179000254800F0EDFE00200DB0F0BD252D2A2ECD
:1017A000732020706572696F6469632020207469FA
:1017B0006D656F757420202020202020666C616785
:1017C0000A00000074696D65720000009C41000011
:1017D000202D2D2D2D2D2D2D2D2D2D202D2D2D2D53
:1017E0002D2D2D2D2D2D202D2D2D2D2D2D2D2D2D36
:1017F0002D2D0A00252D2A2E2A73203078253038E9
:1018000078203078253038782000000061637469D2
:1018100076617465640A0000646561637469766169
:101820007465640A000000006C410000F0B585B0EA
:10183000FFF72AF80A2603960F2702970120850250
:1018400001950F4800900F480FA1124A002423462B
:1018500001F05AFC0B4801F0FDFC0396029701953C
:101860000D4800900D4D0EA1114A2846234601F067
:101870004BFC284601F0EEFC204605B0F0BDC0460A
:10188000EC032020740320206C65645F746872652B
:10189000616400007D0E000070082020F807202001
:1018A0007072696E745F7468726561640000000034
:1018B000A9210000B0B5054C054DA54203D201CDCC
:1018C0008047A542FBD3FFF7B1FFB0BD1042000037
:1018D00008420000F0B585B002900078002870D072
:1018E0004E4804684E480568A54200D393E00020A6
:1018F0004C4E0390049006E048490C6803900C3568
:10190000A54200D380E02F68062238463146FEF714
:101910008FFC0028F3D1029E3046FEF782FC02467F
:10192000BF1D30463946FEF783FC002801D03D4EEE
:10193000E5E703980028049C03D13846FEF771FCC4
:101940003C460390217800292046364E04942CD042
:1019500000203A5C002A20D091421ED121184B78F9
:10196000002B1CD03A185478002C18D0A34216D162
:101970008B78002B15D09478002C12D0A34210D174
:10198000CB78002B0FD0D278002A0CD093420AD10A
:101990000979001D0029049CDBD1201805E0481CB2
:1019A00002E0881C00E0C81C049C01901EA039467F
:1019B00000F0DEFD0198001B039988429CDB08467D
:1019C0009AE7D74800F0D4FD144807681448056822
:1019D000BD4214D2134C02E00C35BD420FD22E682A
:1019E000062230462146FEF723FC0028F4D16A681F
:1019F000B11DCF4800F0BCFD08480768ECE7CD48B2
:101A000000F0B6FD05B0F0BD0499002903D002989E
:101A1000039A01F08DF905B0F0BDC0464C002020BE
:101A200048002020DC41000025730A00F0B58BB08F
:101A3000002935D0002202E0521C914230D0845C53
:101A4000202CF9D0092CF7D0831802938D1A691E27
:101A5000AB1E0195EE1E0025E4B2092C2CD0202CE3
:101A60002AD0019CAC421ED04419A4186778092FD3
:101A70001DD0202F1BD0A94215D0A778092F1AD02E
:101A8000202F18D0AB420ED0E778092F00D1BDE04F
:101A9000202F00D1BAE0AE4205D024792D1DDBE71E
:101AA00000200BB0F0BD019D002D08D1B2E06D1CEF
:101AB000002D04D1AEE0AD1C002D00D1AAE072488B
:101AC000046872480668A64200D3A3E0A81D0090EF
:101AD00003E00C36A64200D39CE037680622384665
:101AE0006B49FEF7A5FB0028F3D1B81D02992A46E1
:101AF000FEF79EFB0028ECD10098385C0028E8D166
:101B0000B0680090002800D184E000270A97099768
:101B10000897079706970597049703973846029901
:101B2000019A9042024605D8019A03E000230B7007
:101B3000401C491C0B78202B01D0092B02D182427A
:101B4000F4D11046082F00D386E0019A904200D3CA
:101B500091E0222B09D1BB004A1C03ACE250431C8C
:101B6000019CA3421FD300261EE0BA0003AB99508C
:101B7000019A9042034600D8019B1A1AC31A5C1CB2
:101B80007F1C0023CD5C092D33D0202D31D09A420B
:101B900073D0CD186E78092E2ED0202E2CD0E518BB
:101BA0006BD09B1CEEE70126497802E000265178B5
:101BB000521C222915D0019CA34212D25C2904D1C7
:101BC0005178222903D0184602E0184603E0801C11
:101BD000222900D1521C431C01998B42E6D20126D6
:101BE000E5E77F1C002E48D000211170801C511C9D
:101BF00008E0C018C91802E0C018401C691C019A0E
:101C000090423AD2019A90428AD336E0ED1C002DE0
:101C100000D054E70298027820210A43202A12D0EB
:101C200042780A43202A09D082780A43202A07D022
:101C3000C2780A43202A05D0001DECE7401C02E0D0
:101C4000801C00E0C01C002404701CA0029900F05D
:101C50008FFCE0430BB0F0BD0EA000F089FC03AC9C
:101C600014A63D4602CC304600F082FC6D1EF9D130
:101C7000114800F07DFC002FCCD003A93846009A13
:101C800090470BB0F0BDC0464C00202048002020FB
:101C9000DC410000546F6F206D616E7920617267C6
:101CA000732021205765206F6E6C79205573653A3B
:101CB0000A000000257320007F41000025733A20B0
:101CC000636F6D6D616E64206E6F7420666F756EEC
:101CD000642E0A00F0B581B0114800F049FC1148AB
:101CE000076811480568BD4214D2104C02E00C355B
:101CF000BD420FD22E68062230462146FEF798FAE2
:101D00000028F4D16A68B11D094800F031FC05488B
:101D10000768ECE7074800F02BFC002001B0F0BD9D
:101D2000B54100004C00202048002020DC4100008C
:101D3000D04100007F41000001207047F0B593B012
:101D40000D930F4605461A9B580601D5EEA000E0FC
:101D5000F2A00C900124D80600D5A343D80701D0E7
:101D6000302000E02020079098070026199905915F
:101D700000280697049307D403940196002A00D103
:101D8000A7E01046029612E0002A08D4580700D5B2
:101D900097E0180700260028EED5202092E0114693
:101DA00002945142002003902D2001900846032602
:101DB000089502E0361D00287FD00E960F260A25D2
:101DC00029460746FEF743FA04460D9A0A2A0B9560
:101DD000099602D03846304001E06543781B3B4607
:101DE0000E9E0C99085C0FA98919C91E08703E093E
:101DF0000A2A00D03446002C0B9F53D00A93204669
:101E00003946FEF724FA0D9A394607460A2A02D0C7
:101E10000998064002E008467843261A0A9B0C9867
:101E2000805D0FA90E9E8919891E08701C0A0A2A56
:101E300000D02746002F38D038460B9D2946FEF7A4
:101E400006FA0D9B06460A2B02D00998044001E0D1
:101E500075437C1B0C98005D0FA90E9A8918491ECA
:101E600008700A98040B0A2B069F089D00D026468E
:101E7000002E1FD030460B9F3946FEF7E8F90D9B28
:101E80000A2B02D009990C4001E04743F41B0E9E37
:101E9000089D0C99095D0FAA91550A2B8AD00A98C2
:101EA000000C87E70E9EB61E00E0761E029A069F83
:101EB000089D13E0029A0E9E10E0F61E029A069FFD
:101EC0000CE02B200190002003902646002A00D031
:101ED00057E732460FA8302101700126189805995E
:101EE0008E42314600DC0599401A1123049C1C42A5
:101EF0002AD1002801DC002300E001231A40821AC5
:101F0000501E21DB0323134019D0BD4201D22020F3
:101F100028706C1C012B02D1901E25460FE0BC429C
:101F200001D220202070AC1C022B02D1D01E2546ED
:101F300005E0BC4201D220202070101FED1C0023C0
:101F4000DB43042A1DD21846039A002A05D1BD425C
:101F500001D2019A2A706D1C401E049AD2063FD409
:101F6000431E0CDB0322024035D0BD4201D2079B49
:101F70002B706C1C012A1ED1831E25462BE01846AF
:101F80002EE0001D03E0001F2D1D0328DBDDBD42F8
:101F900001D220222A706A1CBA4201D22024147075
:101FA000AA1CBA4201D220241470EA1CBA42EAD216
:101FB00020241470E7E7BC4201D2079B2370AC1CBD
:101FC000022A02D1C31E254605E0BC4201D2079A6F
:101FD0002270031FED1C0022D243042816D21046A3
:101FE000059A96423BDA8A1B03231340F2438A1870
:101FF000002B31D0BD4201D230242C706C1C012B3F
:102000001ED1491E2546032A29D3B9E0181D03E035
:10201000001F2D1D0328E2DDBD4201D2079B2B705E
:102020006B1CBB4201D2079C1C70AB1CBB4201D293
:10203000079C1C70EB1CBB42EAD2079C1C70E7E7B4
:10204000BC4203D20E96302626700E9EAC1C022B8C
:1020500000D087E0891E2546032A00D390E0059929
:10206000002925D00FA9091F04E0361F2D1D321DA0
:10207000042A1DDDBD4202D28A19D2782A706A1C58
:10208000022E14DBBA4202D28B199B781370AA1C61
:10209000032E0CDBBA4202D28B195B781370EA1C58
:1020A000042E04DBBA42E0D28B5D1370DDE71546E7
:1020B000012823DB0321014008D0BD4201D22022A8
:1020C0002A706A1C012905D1411E0BE00146042833
:1020D00014D316E0BA4201D220231370AA1C02299D
:1020E00004D1811E1546042808D30AE0BA4201D261
:1020F00020211170C11EED1C042802D2284613B005
:10210000F0BD481E1AE0C046303132333435363720
:1021100038394142434445460000000030313233F3
:102120003435363738396162636465660000000013
:10213000001F2D1D0121C9438842DFD2BD4201D2BB
:1021400020212970691CB94201D220220A70A91CE1
:10215000B94201D220220A70E91CB942E8D22022F9
:102160000A70E5E7BC4201D230232370C91EED1C82
:10217000032A05D273E7091F2D1D8E4200DB6EE78F
:10218000BD4201D230222A706A1CBA4201D23023E9
:102190001370AA1CBA4201D230231370EA1CBA424F
:1021A000E9D230231370E6E704A4204600F0E0F9FA
:1021B0007D20800000F0E6FFF7E7C0466C69756A95
:1021C00069616A756E0D0A00B0B504464C4320463D
:1021D00000F0E6F90546002804D0002128462246F2
:1021E00000F0E4FA2846B0BDB0B5044C044DA54259
:1021F00003D201CD8047A542FBD3B0BD0842000009
:102200000042000080B5FDF76FFF0F490A88521C9D
:102210000A80FDF76DFF80BD80B5FDF765FF0A49B7
:102220000A88521E0A8012B2002A02DDFDF760FF02
:1022300080BD00220A80FDF75BFFA04800680028EF
:10224000F6D000F0EFFB80BD84352020F0B583B0E0
:10225000002864D0054634480068A8425FD8314859
:102260000068A8425BD900200290C1432F4800F0CB
:1022700087FC2E460C3EF52047012C460A3C208860
:10228000002802D03088B84208D029A000F070F9A8
:10229000338822882DA0314600F06AF937800298F1
:1022A0002080364801688E4201D206603146029194
:1022B0001D4801682A46083A106801904418301BEE
:1022C0002F4B1F68C0191860A64213D060880028E1
:1022D00010D11448006884420CD00298A04202D168
:1022E000F94806600296606801901060701A636891
:1022F000CB189860281F04680D19B5420CD0688867
:10230000002809D10298B04201D1EF480560019838
:102310006860106808188460044800F009FC03B085
:10232000F0BDC046D4022020D8022020DC022020AC
:10233000746F20667265652061206261642064614B
:10234000746120626C6F636B3A0A00006D656D3AD0
:10235000203078253038782C207573656420666CC1
:1023600061673A2025642C206D6167696320636F83
:1023700064653A203078253034780A00EC07202054
:10238000AC372020034870470520C00201490818D7
:102390007047C046780C202010B5FEF7EFF9FFF724
:1023A00023FFFFF7EFFF0446FFF7EEFF014620464D
:1023B00000F002FD10BD000005480068C0B20B2807
:1023C00003D104480068C0B27047FF20C0B2704714
:1023D000209010402491104080B5014601A001F0EA
:1023E00041FC80BD257300000446C16913A000F0C4
:1023F000BFF8A16915A000F0BBF8616917A000F053
:10240000B7F8216919A000F0B3F8E1681BA000F04B
:10241000AFF8A1681DA000F0ABF861681FA000F044
:10242000A7F8216821A000F0A3F82448016824A09F
:1024300000F09EF8FEF7F0FFFEE7C0467073723AB8
:10244000203078253038780A000000002070633A88
:10245000203078253038780A00000000206C723A6D
:10246000203078253038780A000000007231323A86
:10247000203078253038780A000000007230333A76
:10248000203078253038780A000000007230323A67
:10249000203078253038780A000000007230313A58
:1024A000203078253038780A000000007230303A49
:1024B000203078253038780A00000000740C202085
:1024C00068617264206661756C74206F6E20746838
:1024D000726561643A2025730A00000070B5121D10
:1024E0000724A24314461C3C002525601646203EC6
:1024F000316011462439124E0E60114628390E60A3
:1025000011462C390E60114630390E6011463439AF
:102510000E60114638390E6011463C390E60114686
:1025200040390E606560A560E560141F01252D0629
:1025300025601446083C20600C3A1360084670BDC4
:10254000EFBEADDE80B5FDF7CFFD08490A78521C1D
:102550000A70FDF7CDFD80BD80B5FDF7C5FD0349CF
:102560000A78521E0A70FDF7C3FD80BD7C3420201E
:1025700083B0B0B581B0044605A80EC005AB00938A
:10258000064DFF212846224601F01EF82846FFF797
:1025900023FF01B0B0BC01BC03B00047843420204D
:1025A000F0B583B0002400281ED0C51C032085434D
:1025B000424E3068854217D800200290C1434048FF
:1025C00000F0DEFA0C2D00D80C2530680090461B78
:1025D0003C4802683C4800680190801AB04209D328
:1025E000374800F0A5FA029C204603B0F0BDB74280
:1025F0003846F5D21418676861880029F7D1034678
:102600000C33F91AA942F2D3F526760102962E462A
:102610001836B14206D201216180381A2B490B6865
:10262000181815E05E190C350299915391194F60F5
:1026300000234B80666088600120608048680099B4
:102640000C31884201D0101886602049086828188B
:1026500008601F490968814201D21D49086002983B
:10266000208001998C4224D14888002821D0194823
:10267000036899421DD0486811184888002816D070
:10268000994214D048681118488800280FD0994200
:102690000DD0486811184888002808D0994206D003
:1026A000486811184888002801D09942E3D10648AB
:1026B0000160034800F03CFA0C3495E7F407202051
:1026C000DC022020D8022020EC072020AC3720207C
:1026D000F0072020D4022020F0B5814211D28D18BD
:1026E00085420ED9002A5FD0032616408118002E9D
:1026F00039D04B1E6C1E27781F70012E37D1511E0A
:1027000042E0002A50D00323134009D00C78047013
:10271000012B0AD1431C491C541E042A16D243E043
:1027200003461446042A11D23EE04C784470022B32
:1027300005D1831C891C941E042A07D234E08B78AF
:102740008370C31CC91CD41E042A2DD30A781A70A6
:102750004A785A708A789A70CA78DA701B1D091DF7
:10276000241FF3D120E02C460B4611460CE08B1EB3
:10277000AC1E27781F70022E01D1911E04E0CB1EE3
:10278000EC1E21781970D11E042A0DD31A1F231FA5
:10279000DC78D4709C7894705C7854701C781470D9
:1027A000121F1B1F091FF3D1F0BD000070B50446B6
:1027B000042A18D303202346034014D1CDB2344B4E
:1027C0006B43102A11D31546103D2E09761C064086
:1027D0000DD023606360A360E360012E09D1204621
:1027E00010302A4616E0204648E020462AE02046DF
:1027F00010E023616361A361E361022E03D1203AFB
:102800002046203006E023626362A362E362303A2E
:1028100020463030302D13D3036243628362C3629B
:10282000036343638363C363036043608360C36084
:10283000036143618361C3614030403A0F2AEBD8A2
:10284000042A1BD3054608C5161F042E0FD3436068
:102850001546083D042D0DD3836015460C3D042D0F
:102860000AD3C360103A1030032AEBD806E028469A
:10287000324603E0083000E00C302A46002A04D03B
:10288000CBB211461A46FDF7ADFC204670BDC046DE
:1028900001010101F0B581B00F4605465E4C20787C
:1028A000A84211D0207CA84201D110340CE0202095
:1028B000205CA84201D1203406E03020205CA842F0
:1028C00001D0002400E03034E068FFF769FE0646DE
:1028D000002819D0E2680097002730463946FFF7F4
:1028E00065FF7772357208223046009900F020FAB1
:1028F000FDF7FAFB6168F16032460C324A606260B3
:10290000211D3161FDF7F4FB304601B0F0BDC0463A
:1029100010B5044600202072FDF7E6FBE16822694D
:102920004A602269116021460C31E1602161FDF7A6
:10293000DFFB2046FFF78AFC10BD10B504460020DF
:102940002072FDF7D1FBE16822694A6022691160BB
:1029500021460C31E1602161FDF7CAFB10BD00008A
:1029600001462D4802788A4200D17047027C8A4293
:1029700001D1103070472022825C8A4201D1203080
:1029800070473022825C8A4201D00020704730308C
:102990007047C046F0B581B015460E4604461E4F3E
:1029A0003878884211D0387CB04201D110370CE021
:1029B0002020385CB04201D1203706E03020385C5E
:1029C000B04201D0002700E03037FFF71BFC3F1D6D
:1029D00038460068B84208D00068B84205D00068A0
:1029E000B84202D00068B842F3D180200643FFF716
:1029F00013FC267208222046294600F099F9FDF7BB
:102A000073FB3968E16022460C324A603A60276104
:102A1000FDF76EFB01B0F0BD04002020007AC00974
:102A200070470000B0B5FDF75FFB04461248008810
:102A3000002803D02046FDF75BFBB0BD334800689B
:102A4000FDF7E4FE421ED0002F4909580B46143B07
:102A50000A4D28688342EDD02B60094B1A7008316B
:102A60001C30084A1278002A02D0FDF744FBE1E747
:102A7000FDF741FBDEE7C04684352020740C2020A2
:102A8000700C20207C34202070B504463425FDF7DE
:102A90002BFB615DF0220A40511C61552146343107
:102AA0004978C900184A51184A68A261234614336C
:102AB0001360A26B154D2E6816432E604B6061614A
:102AC000FDF716FB70BDC04610B50446FDF70CFBC4
:102AD0006169A2694A60A26911602146143161618D
:102AE000A1613521615CC900074A531851589942C8
:102AF00002D0FDF7FDFA10BDA16B044A13688B43A9
:102B00001360FDF7F5FA10BD903520209036202097
:102B100070B51C4615460A4606460221FFF73AFFE5
:102B2000B583304614307061B0617472002070BD9E
:102B3000B0B50546FDF7D8FA044668692946143150
:102B4000884209D0143800F024FB2046FDF7D0FA63
:102B5000FFF768FF0020B0BDA88B0849884205D167
:102B60002046FDF7C5FA0220C043B0BD401CA88333
:102B70002046FDF7BDFA0020B0BDC046FFFF0000B3
:102B8000F0B583B00E4607460291FDF7ADFA044654
:102B9000B88B002807D0401EB8832046FDF7A8FA5E
:102BA000002003B0F0BD002E38D000F015FB00214E
:102BB00001637D7A019000F079FB38461430002DD6
:102BC00033D0012D019D38D100942A46353201467B
:102BD0000968814246D02123CD5C1478AC4214D3DD
:102BE000096881423ED0CC5C1578A5420DD30968B6
:102BF000814237D0CC5C1578A54206D30968814262
:102C000030D0CB5C14789C42E2D24868019D2A46C1
:102C1000143202606961A8614A602BE02046FDF72A
:102C200067FA0120C04303B0F0BDB969019D2A468F
:102C300014320A606861A961BA61012E09DB2E466F
:102C40004436002102AA304600F000FC304600F075
:102C500055FC2046FDF74CFAFFF7E4FE286B0028F0
:102C60009FD19DE7B969019D2A4614320A606861C7
:102C7000A961BA61009C012EE1DAEAE780B582B071
:102C800009A0FFF775FC0BA0FFF772FC12A00090E3
:102C900014A0032101220523FFF76AFC19A0FFF706
:102CA00067FC02B080BDC0460A205C207C202F0A51
:102CB000000000002D205254202D202020202054E0
:102CC0006872656164204F7065726174696E672017
:102CD00053797374656D0A004A756C202034203274
:102CE00030323500202F207C205C20202020202521
:102CF000642E25642E2564206275696C642025731A
:102D00000A0000002032303036202D2032303230A0
:102D100020436F70797269676874206279207274D9
:102D20002D746872656164207465616D0A0000002D
:102D3000F0B583B00290002A3BD0504201900025AC
:102D4000029B4C5D02984455002C1ED001984719F7
:102D50007C1C2ED24C19029846196078707000289D
:102D600017D0B81C25D0A078B070002816D0F81C59
:102D70001FD0E078F070002815D01B1D2D1D019884
:102D80004019121F0028DCD113E0581C511E0ED12F
:102D90000FE0981C521E511E09D10AE0D81C921E49
:102DA000511E04D105E0301DD21E511E01D0FDF789
:102DB00020FA029803B0F0BD70B50A460146032020
:102DC000C34310461840192825D3CC1C1C40034689
:102DD000183BA3421FD3F52149012160011B0A467C
:102DE000183A0F4E32600C3961600C384160002394
:102DF000A3600C4D2C600C4908600C4901603168DF
:102E00000C3181600A480BA10122FFF781FE28687E
:102E10000A49086070BD0AA0FFF7AAFB70BDC04652
:102E2000F4072020D8022020D4022020A01E010078
:102E3000DC0220206865617000000000EC072020A3
:102E40006D656D20696E69742C206572726F7220D9
:102E5000626567696E20616464726573732030789F
:102E600025782C20616E6420656E64206164647234
:102E700065737320307825780A000000F0B583B0C0
:102E80002C490020009008803649202002900846F6
:102E9000083001900C4610340D4618350F46203787
:102EA000084628300A4630320B4638330E46403644
:102EB0000F624F628862C8620A634A638B63CB63A6
:102EC0000F4648370960496001988860C8600C6106
:102ED0004C618D61CD61084650300A4658320E640F
:102EE0004E648F64CF64086548658A65CA65084684
:102EF00060300A4668320B4670330C4678340866F8
:102F0000486602988A66CA660B674B678C67CC670F
:102F1000103880310028B9D1E348009A0260064891
:102F20001F2101700E48026065480060406003B0D8
:102F3000F0BDC04684352020700C202080B50848A4
:102F40000068FDF763FCC0000649401808380068B7
:102F500001461439D44A11600830FDF704F980BDE8
:102F60009036202090352020014800604060704756
:102F70009C37202070470000F0B585B01D460492B4
:102F80000F4601460120FFF785FC002600283BD0B4
:102F900004462846FFF704FB002832D02646343684
:102FA0000B9903910A990291276204996162A062C8
:102FB000E562214614316161A16123212A46FFF7B0
:102FC000F5FB234620330FCBD218121F6B4BFFF7B4
:102FD00085FAE0610298B07070700020A0630399D8
:102FE000E163216420633070206760670090019086
:102FF00020464430624A2146234600F068FA2646BD
:1030000002E02046FFF784FC304605B0F0BDC04624
:1030100070B5D6480568FDF767F80446FDF764F813
:103020000646296F002901D0284688473046FDF71B
:103030005FF82846FFF748FD34200421295428462C
:10304000443000F02CFA2846FFF7E8FC012803D1B1
:103050002846FFF772FC07E0194801682A46143237
:103060004A6002606961A861FFF7DCFC2046FDF759
:103070003FF870BD00F002F8FCE7000070B5FDF706
:1030800033F804460E4E3568B54214D003CD416086
:10309000083D696808602D606D606869FFF7D6F8C3
:1030A000143D2846FFF734FC2046FDF721F8FDF7D4
:1030B0001BF80446E7E72046FDF71AF870BDC04646
:1030C0008835202010B584B0202003901F20029066
:1030D00008480090012000020190074C07A1094A0E
:1030E0000023204600F010F8204600F0B3F804B0AA
:1030F00010BDC04694362020FC0220207469646C08
:10310000650000007530000070B582B01D4616469F
:103110000A4604460121FFF73DFC079AE262069841
:10312000A06265622662214614316161A16123219A
:10313000FFF73CFB234620330FCBD218121F0F4B57
:10314000FFF7CCF934210025655421463431089A23
:103150008A70E0610998A563E06320644A7025677E
:10316000656725630095019520464430044A214651
:10317000234600F0ACF9284602B070BD11300000C3
:10318000F332000080B500F0F5F800F029F80020D7
:1031900080BD70B505463420285C0F210140002415
:1031A000022917D1FCF7A0FF06466869A9694160AA
:1031B000A9690860284614306861A861284644302F
:1031C00000F0E6F93046FCF793FF2846FFF75CFC79
:1031D000204670BDE04370BD644800687047C0463B
:1031E000F0B581B00090FCF77FFF05465F480468AA
:1031F0003420205C0F210140012913D127463437A8
:10320000FCF772FF06462046FFF75EFC3878F02197
:103210000140881C38702046443000F0B9F930462F
:10322000FCF766FF2746443700266A463846314693
:1032300000F00CF9384600F061F92846FCF758FF19
:10324000FFF7F0FB206B801C00D12663002001B04B
:10325000F0BDC046B0B504463420022121542046BA
:1032600034308178417001208840A063FCF73CFF36
:1032700005466069A1694160A16908602046143073
:103280006061A0612046443000F082F92846FCF7D6
:103290002FFF2046FFF7F8FB34480068002801D0D4
:1032A000FFF7C0FB0020B0BD740C2020F0B581B04A
:1032B00005463420285C0F2101400024012914D147
:1032C0002F463437FCF710FF06462846FFF7FCFB75
:1032D0003878F0210140881C38704435284600F0C9
:1032E00057F93046FCF704FF00E0E443204601B004
:1032F000F0BD80B5416982694A608269116001212F
:10330000C94301630146143141618161FFF7BCFB90
:10331000FFF788FB80BD0000B0B5FCF7E5FE134960
:10332000096834228A5C0F231340012B1AD14A69A1
:103330008B699A4216D00C4634340D4614355360CE
:103340008B698D611A606278D200094B9A185368B4
:103350001D604A618B615560FCF7CAFEFFF762FB96
:103360000020B0BDFCF7C4FE0020B0BD740C2020CE
:1033700090352020C1170843704700000C480068B2
:103380007047C04680B50A480168491C0160FFF7D4
:1033900023FF016C491E016402D000F00BF880BDD0
:1033A000C16B0164FFF7B8FF00F004F880BDC046B0
:1033B00098372020F0B583B001A801900290FFF764
:1033C000DDFF0646FCF790FE00906E4805688542DA
:1033D00035D06869301A1C49884230D803CD416025
:1033E000083D696808602D602C460B3C20788107F9
:1033F00002D4FE210840207001984560286001AF8A
:103400006F600195A968E8688847FFF7B7FF06462F
:103410000198B842D9D003CD4160083D6968086081
:103420002D606D602078032101400329CDD1143D2A
:10343000FE2108402070284600F060F8C5E700989B
:10344000FCF756FE03B0F0BDFEFFFF7F70B51546DA
:103450000E460446FCF748FE042E1CD87E443679FE
:103460007600B744020A0C1105002968616212E077
:10347000617AC9070DD100210CE0616A0AE0617A26
:10348000FD220A40627206E0617A02220A436272F9
:1034900001E001212960FCF72BFE002070BD10B572
:1034A0000446FCF721FE6169A2694A60A2691160C5
:1034B000617AFE220A406272214614316161A16183
:1034C000FCF716FE2046FFF738FA002010BD70B555
:1034D0001D4616460A4604460A21FFF75BFA0020FD
:1034E000A0622562E661FE200599014061720498A0
:1034F000606220461430A061606170BDF0B581B09B
:103500000446FCF7F1FD00906069A1694160A16982
:103510000860607AFE2101406172264614366661B9
:10352000A661FFF72BFF616A0918A162154F786841
:10353000154B87420FD03A6855696D1A01D09D42EC
:103540000CD3824207D017687D696D1AF1D09D4275
:103550003D46EED204E00568024601E015463A46D3
:1035600065616E601660A26108480168491C0160CF
:10357000607A0121014361720098FCF7B9FD0020D7
:1035800001B0F0BD9C372020FFFFFF7FA437202033
:10359000B0B505460024407AC00701D1E043B0BD74
:1035A000FCF7A2FD6969AA694A60AA691160697A93
:1035B000FE220A406A72294614316961A961FCF74A
:1035C00097FD2046B0BD0000F0B58FB01F461646EF
:1035D000044600220992D54306910029089501D49A
:1035E00006996518E143049105940C9501E0641C6B
:1035F000761C3178252906D0002900D10DE3AC4294
:10360000F5D22170F3E70B94761C099C33781A46A7
:10361000203A102A17D810217A4412795200974480
:103620000C12120E1212121212121210120912128F
:10363000080001210C43761CE8E70821FAE7202165
:10364000F8E70421F6E718463038092817D8002192
:103650000A225143C918303973781846303809287E
:1036600017D84A43D1183039B21CB37818463038CD
:103670000A281646ECD316462E2B0DD112E02A2B23
:103680000CD102CF761C002909D5102004434942F1
:1036900005E0761C2E2B05D0089A2AE0089933788D
:1036A0002E2BF9D1737818463038092815D8751C97
:1036B00000220A267243D218303A6B781846303806
:1036C000092810D85643F218303AAE1CAB78184689
:1036D00030380A283546ECD309E02A2B05D1B378D7
:1036E00004CFB61C03E06E1C01E0761C089AD017CC
:1036F0008243042018436C280D9703D17778761CF9
:103700000E9302E000200E901F463D46253D532DAE
:1037100000D966E00A236D007D44AD886D00AF449A
:1037200056006000600060006000600060006000A3
:103730006000600060006000600060006000600089
:103740006000600060006000600060006000600079
:103750006000600060006000600060006000600069
:103760006000600060006000600060006000600059
:103770006000600060006000600060006000600049
:103780006000600060007200600060006000600027
:103790006000600060006000600060007600530020
:1037A0006000600060006000530060006000600026
:1037B000600060009100B00060006000C800600020
:1037C0009200600060007400022004433BE00C9D06
:1037D0000B9CAC4201D225202070641C0D9F761CEE
:1037E00007E70C9D0B9CAC4202D225202070377855
:1037F000611C002F00D18CE0A94200D20F70A41CE4
:103800000D9F761CF5E64020044310231BE0E006E4
:1038100000D5A8E04C1E022900DAA3E003252540CC
:103820008B1E002D00D1DDE00C980B9C844201D250
:1038300020202070621C012D0D9F00D0DCE01C4672
:103840000C9DFBE008230E9868280A9304D06C288E
:103850000D9F3B680C9D06E00D980388A00700D5DE
:103860001BB20C9D0D9FE0B20091019202900B984B
:1038700029461A460A9BFEF761FA04463F1D761C4C
:10388000B7E60D9880C80D9001924A1C00D108211E
:103890000C9D0091504250410443E0B2029010232D
:1038A0000B9829463A46FEF749FA04460D9F761CC6
:1038B0009FE60D9808C8002B00D1E0A30E930029C5
:1038C0000D902BD0089B4B43C81E0A9000270E98E2
:1038D0000793C05D002822D0DD19681C17D20E980E
:1038E000C3195878002800D184E0A81C0FD098781C
:1038F000002800D18BE00A98B84208D0D878002878
:1039000000D191E03F1D079BD8190E98E1D10F46D9
:1039100005E0761E0C460D9F761C6AE6002797424E
:10392000134600DC3B46002A00DC3B46E0060A93D7
:1039300015D44D1E99424BDDC81A03270740D843C2
:103940000C18002F51D00C9B0B9A9A4201D22020C8
:103950001070521C012F5CD18D1E0D9F96E00B9AAA
:103960000D9F97E021460BAFB0CFAC4201D2386833
:1039700020703F1D022928DB221D06E0411C121D7C
:103980000223DB43401E984229D2D01EA84201D216
:1039900020230370941E032900D270E7AC4201D2A9
:1039A00020202070091F541E0320C343994200D9D0
:1039B00065E7AC4201D220202070481E98420BD807
:1039C000AA42DBD220211170D8E7641C761C10E6D5
:1039D0000B9A29460D9F5DE01446761C09E6D41E1D
:1039E000761C06E60BAFA4CF28E00B9A0D9F032CA4
:1039F0004FD39DE07F1C92E70C98824201D2202099
:103A00001070A21C022D11D1CC1E0C9D16E0BF1C03
:103A100085E79A4201D2202010700B98821C022F59
:103A20000D9F2CD1CD1E31E0FF1C78E70C9DAA42E2
:103A300001D2202010700C1F0B98C21C0021032BF8
:103A400003D21446AC4292D393E7201D03E0001F3B
:103A5000121D0428F5DDAA4201D220231370531C45
:103A6000AB4201D220241C70931CAB4201D2202413
:103A70001C70D31CAB42EAD220241C70E7E79A42A8
:103A800001D2202010700D1F0B98C21C0A9B032C22
:103A90004ED2591E0E98012B06DB0324042B05D2AF
:103AA0000C9D1C4032D165E00C9D63E00794A3435C
:103AB0000B93002403E0241D0B9BA3421ED0151979
:103AC0000C9FBD4201D2035D2B706B1CBB4204D224
:103AD0000E980019407818700E98AB1CBB4204D2A7
:103AE0000E980019807818700E98EB1CBB42E2D239
:103AF0000E980019C07818700E98DCE7121900199A
:103B00000C9D0D9F0A9B079C1C4033D0AA4201D2FA
:103B100003781370531C012C08D0AB4203D20794D6
:103B200044781C70079C931C022C1DD11A4620E07F
:103B3000681C04E0001F121D0A9B8342A9DA0C9C3A
:103B4000A24201D220211170511CA14201D2202396
:103B50000B70911CA14201D220230B70D11CA142F9
:103B6000E8D220230B70E5E7AB4201D280781870D1
:103B7000D21C0A9B994217DDC81A03240440D8437B
:103B80000818002C13D02B46AA4203D20546202049
:103B900010702846551C012C0DD1491E2C461D467F
:103BA0000A9B032825D26AE61446761C21E51446B2
:103BB00003281ED263E60E909D4201D22020287079
:103BC000901C022C03D1891E04461D4607E01D46A9
:103BD000984202D2044620202070C91ED41C0A9BA1
:103BE0000E98032805D24AE6091F241D8B4200DBEC
:103BF00045E6AC4201D220202070621CAA4201D2CC
:103C000020201070A21CAA4201D220201070E21CB9
:103C1000AA42E9D220201070E6E70698002804990D
:103C200000D401460029059905D0AC42204600D3B6
:103C3000681E099A0270601A0FB0F0BD284E554CEC
:103C40004C2900000020704700207047002070477A
:103C5000002070470020704780B5FFF70FF8002064
:103C600080BD00000FB410B503A9044B044A0298AC
:103C700000F01DF810BC08BC04B01847390E000055
:103C8000000020200000000002E008C8121F08C148
:103C9000002AFAD1704700007047000000000000C1
:103CA000002001E001C1121F002AFBD17047FFB5BF
:103CB00081B00546002706E025280AD0049A03991A
:103CC00090476D1C7F1C28780028F5D1384605B038
:103CD000F0BD002269786D1C10462E2913D1697839
:103CE00004226D1C2A2909D102996D1C01C9029177
:103CF00009E00A235843303808186D1C29780B4610
:103D0000303B092BF5D92B78002BDFD0632B07D064
:103D1000732B10D0049A1846039990477F1C2DE00E
:103D200002996C460B782370091D02910021617085
:103D30006E46012104E0029940C902910021C94365
:103D400052070AD5002400E0641C84420DDA8C423C
:103D5000FADB325D002AF7D107E0002400E0641CA2
:103D60008C42FCDB305D0028F9D13F1904E030784B
:103D7000049A761C03999047641EF8D26D1CA2E742
:103D80000000010002000100030001000200010028
:103D90000400010002000100030001000200010014
:103DA0000500010002000100030001000200010003
:103DB00004000100020001000300010002000100F4
:103DC00006000100020001000300010002000100E2
:103DD00004000100020001000300010002000100D4
:103DE00005000100020001000300010002000100C3
:103DF00004000100020001000300010002000100B4
:103E000007000100020001000300010002000100A0
:103E10000400010002000100030001000200010093
:103E20000500010002000100030001000200010082
:103E30000400010002000100030001000200010073
:103E40000600010002000100030001000200010061
:103E50000400010002000100030001000200010053
:103E60000500010002000100030001000200010042
:103E70000400010002000100030001000200010033
:103E80000100000000000000000000000000000031
:103E9000000000001000000000010000030000000E
:103EA000000000003400C4410407F90000000000D5
:103EB0000100000000000000000000000000000001
:103EC00008070900000000000000000000000000DA
:103ED00000000000000000000800000018000000C2
:103EE0000030000068656C6C6F0073617920686554
:103EF0006C6C6F20776F726C640076657273696F9B
:103F00006E0073686F772052542D54687265616437
:103F10002076657273696F6E20696E666F726D616F
:103F200074696F6E005F5F636D645F76657273695D
:103F30006F6E0073686F772052542D5468726561FC
:103F4000642076657273696F6E20696E666F726D3C
:103F50006174696F6E006C6973745F746872656117
:103F600064006C69737420746872656164005F5FDB
:103F7000636D645F6C6973745F746872656164001B
:103F80006C69737420746872656164006C69737421
:103F90005F73656D006C6973742073656D61706823
:103FA0006F726520696E2073797374656D005F5F51
:103FB000636D645F6C6973745F73656D006C6973C6
:103FC000742073656D6170686F726520696E20730F
:103FD000797374656D006C6973745F6D61696C628F
:103FE0006F78006C697374206D61696C20626F7802
:103FF00020696E2073797374656D005F5F636D6413
:104000005F6C6973745F6D61696C626F78006C6975
:104010007374206D61696C20626F7820696E207303
:10402000797374656D006C6973745F74696D657222
:10403000006C6973742074696D657220696E2073F9
:10404000797374656D005F5F636D645F6C69737431
:104050005F74696D6572006C6973742074696D6555
:104060007220696E2073797374656D006C69737466
:10407000006C69737420616C6C2073796D626F6C75
:1040800020696E2073797374656D005F5F636D6482
:104090005F68656C700052542D54687265616420CD
:1040A0007368656C6C2068656C702E005F5F636D73
:1040B000645F7073004C6973742074687265616426
:1040C0007320696E207468652073797374656D2E32
:1040D000005F5F636D645F667265650053686F774C
:1040E00020746865206D656D6F72792075736167E6
:1040F0006520696E207468652073797374656D2E10
:10410000006C6973745F6D656D006C697374206D0C
:10411000656D6F727920757361676520696E666F72
:10412000726D6174696F6E00252D2A2E7320707276
:1041300069202073746174757320202020202073FF
:10414000702020202020737461636B2073697A656E
:10415000206D61782075736564206C6566742074C9
:1041600069636B20206572726F720A0063757272E8
:10417000656E74207469636B3A3078253038780A3C
:104180000020696E69742020200020636C6F7365C5
:104190002020002072656164792020002D002F000E
:1041A0002073757370656E64002072756E6E696E33
:1041B000670025730052542D546872656164207342
:1041C00068656C6C20636F6D6D616E64733A0A0094
:1041D000252D313673202D2025730A005F5F636D16
:1041E000645F0008006D7368200066696E73682064
:1041F000002563006D61696E00000000513C000005
:10420000493C0000553C0000453C0000A10800006E
:104210004D3C0000E43E0000EA3E00005D0E000060
:10422000FA3E0000023F0000593C0000253F00001C
:10423000333F0000593C0000563F0000623F000041
:10424000191400006E3F0000803F000019140000A8
:104250008C3F0000953F0000E1110000AE3F0000E0
:10426000BD3F0000E1110000D63F0000E33F000029
:10427000110F0000FB3F00000E400000110F000076
:104280002640000031400000551600004640000066
:1042900057400000551600006C40000071400000BF
:1042A000990E00008B40000096400000D51C0000D5
:1042B000AC400000B54000007F080000D140000085
:1042C000DC40000075080000014100000A410000C8
:1042D00069110000F84200000000202048000000A2
:1042E000883C00004043000048002020683900005E
:1042F000A03C0000000000000000000001000000E1
:1043000008002020080020207800000002000000A3
:1043100018002020180020202000000005000000C8
:104320002800202028002020300000000A00000083
:1043300038002020380020202C0000000000000061
:04000005000000C136
:00000001FF
